{
  "_format": "hh-sol-artifact-1",
  "contractName": "BasicNft",
  "sourceName": "contracts/BasicNft.sol",
  "abi": [
    {
      "inputs": [],
      "stateMutability": "nonpayable",
      "type": "constructor"
    },
    {
      "inputs": [
        {
          "internalType": "address",
          "name": "sender",
          "type": "address"
        },
        {
          "internalType": "uint256",
          "name": "tokenId",
          "type": "uint256"
        },
        {
          "internalType": "address",
          "name": "owner",
          "type": "address"
        }
      ],
      "name": "ERC721IncorrectOwner",
      "type": "error"
    },
    {
      "inputs": [
        {
          "internalType": "address",
          "name": "operator",
          "type": "address"
        },
        {
          "internalType": "uint256",
          "name": "tokenId",
          "type": "uint256"
        }
      ],
      "name": "ERC721InsufficientApproval",
      "type": "error"
    },
    {
      "inputs": [
        {
          "internalType": "address",
          "name": "approver",
          "type": "address"
        }
      ],
      "name": "ERC721InvalidApprover",
      "type": "error"
    },
    {
      "inputs": [
        {
          "internalType": "address",
          "name": "operator",
          "type": "address"
        }
      ],
      "name": "ERC721InvalidOperator",
      "type": "error"
    },
    {
      "inputs": [
        {
          "internalType": "address",
          "name": "owner",
          "type": "address"
        }
      ],
      "name": "ERC721InvalidOwner",
      "type": "error"
    },
    {
      "inputs": [
        {
          "internalType": "address",
          "name": "receiver",
          "type": "address"
        }
      ],
      "name": "ERC721InvalidReceiver",
      "type": "error"
    },
    {
      "inputs": [
        {
          "internalType": "address",
          "name": "sender",
          "type": "address"
        }
      ],
      "name": "ERC721InvalidSender",
      "type": "error"
    },
    {
      "inputs": [
        {
          "internalType": "uint256",
          "name": "tokenId",
          "type": "uint256"
        }
      ],
      "name": "ERC721NonexistentToken",
      "type": "error"
    },
    {
      "anonymous": false,
      "inputs": [
        {
          "indexed": true,
          "internalType": "address",
          "name": "owner",
          "type": "address"
        },
        {
          "indexed": true,
          "internalType": "address",
          "name": "approved",
          "type": "address"
        },
        {
          "indexed": true,
          "internalType": "uint256",
          "name": "tokenId",
          "type": "uint256"
        }
      ],
      "name": "Approval",
      "type": "event"
    },
    {
      "anonymous": false,
      "inputs": [
        {
          "indexed": true,
          "internalType": "address",
          "name": "owner",
          "type": "address"
        },
        {
          "indexed": true,
          "internalType": "address",
          "name": "operator",
          "type": "address"
        },
        {
          "indexed": false,
          "internalType": "bool",
          "name": "approved",
          "type": "bool"
        }
      ],
      "name": "ApprovalForAll",
      "type": "event"
    },
    {
      "anonymous": false,
      "inputs": [
        {
          "indexed": true,
          "internalType": "address",
          "name": "from",
          "type": "address"
        },
        {
          "indexed": true,
          "internalType": "address",
          "name": "to",
          "type": "address"
        },
        {
          "indexed": true,
          "internalType": "uint256",
          "name": "tokenId",
          "type": "uint256"
        }
      ],
      "name": "Transfer",
      "type": "event"
    },
    {
      "inputs": [],
      "name": "TOKEN_URI",
      "outputs": [
        {
          "internalType": "string",
          "name": "",
          "type": "string"
        }
      ],
      "stateMutability": "view",
      "type": "function"
    },
    {
      "inputs": [
        {
          "internalType": "address",
          "name": "to",
          "type": "address"
        },
        {
          "internalType": "uint256",
          "name": "tokenId",
          "type": "uint256"
        }
      ],
      "name": "approve",
      "outputs": [],
      "stateMutability": "nonpayable",
      "type": "function"
    },
    {
      "inputs": [
        {
          "internalType": "address",
          "name": "owner",
          "type": "address"
        }
      ],
      "name": "balanceOf",
      "outputs": [
        {
          "internalType": "uint256",
          "name": "",
          "type": "uint256"
        }
      ],
      "stateMutability": "view",
      "type": "function"
    },
    {
      "inputs": [
        {
          "internalType": "uint256",
          "name": "tokenId",
          "type": "uint256"
        }
      ],
      "name": "getApproved",
      "outputs": [
        {
          "internalType": "address",
          "name": "",
          "type": "address"
        }
      ],
      "stateMutability": "view",
      "type": "function"
    },
    {
      "inputs": [],
      "name": "getTokenCounter",
      "outputs": [
        {
          "internalType": "uint256",
          "name": "",
          "type": "uint256"
        }
      ],
      "stateMutability": "view",
      "type": "function"
    },
    {
      "inputs": [
        {
          "internalType": "address",
          "name": "owner",
          "type": "address"
        },
        {
          "internalType": "address",
          "name": "operator",
          "type": "address"
        }
      ],
      "name": "isApprovedForAll",
      "outputs": [
        {
          "internalType": "bool",
          "name": "",
          "type": "bool"
        }
      ],
      "stateMutability": "view",
      "type": "function"
    },
    {
      "inputs": [],
      "name": "mintNft",
      "outputs": [
        {
          "internalType": "uint256",
          "name": "",
          "type": "uint256"
        }
      ],
      "stateMutability": "nonpayable",
      "type": "function"
    },
    {
      "inputs": [],
      "name": "name",
      "outputs": [
        {
          "internalType": "string",
          "name": "",
          "type": "string"
        }
      ],
      "stateMutability": "view",
      "type": "function"
    },
    {
      "inputs": [
        {
          "internalType": "uint256",
          "name": "tokenId",
          "type": "uint256"
        }
      ],
      "name": "ownerOf",
      "outputs": [
        {
          "internalType": "address",
          "name": "",
          "type": "address"
        }
      ],
      "stateMutability": "view",
      "type": "function"
    },
    {
      "inputs": [
        {
          "internalType": "address",
          "name": "from",
          "type": "address"
        },
        {
          "internalType": "address",
          "name": "to",
          "type": "address"
        },
        {
          "internalType": "uint256",
          "name": "tokenId",
          "type": "uint256"
        }
      ],
      "name": "safeTransferFrom",
      "outputs": [],
      "stateMutability": "nonpayable",
      "type": "function"
    },
    {
      "inputs": [
        {
          "internalType": "address",
          "name": "from",
          "type": "address"
        },
        {
          "internalType": "address",
          "name": "to",
          "type": "address"
        },
        {
          "internalType": "uint256",
          "name": "tokenId",
          "type": "uint256"
        },
        {
          "internalType": "bytes",
          "name": "data",
          "type": "bytes"
        }
      ],
      "name": "safeTransferFrom",
      "outputs": [],
      "stateMutability": "nonpayable",
      "type": "function"
    },
    {
      "inputs": [
        {
          "internalType": "address",
          "name": "operator",
          "type": "address"
        },
        {
          "internalType": "bool",
          "name": "approved",
          "type": "bool"
        }
      ],
      "name": "setApprovalForAll",
      "outputs": [],
      "stateMutability": "nonpayable",
      "type": "function"
    },
    {
      "inputs": [
        {
          "internalType": "bytes4",
          "name": "interfaceId",
          "type": "bytes4"
        }
      ],
      "name": "supportsInterface",
      "outputs": [
        {
          "internalType": "bool",
          "name": "",
          "type": "bool"
        }
      ],
      "stateMutability": "view",
      "type": "function"
    },
    {
      "inputs": [],
      "name": "symbol",
      "outputs": [
        {
          "internalType": "string",
          "name": "",
          "type": "string"
        }
      ],
      "stateMutability": "view",
      "type": "function"
    },
    {
      "inputs": [
        {
          "internalType": "uint256",
          "name": "tokenId",
          "type": "uint256"
        }
      ],
      "name": "tokenURI",
      "outputs": [
        {
          "internalType": "string",
          "name": "",
          "type": "string"
        }
      ],
      "stateMutability": "view",
      "type": "function"
    },
    {
      "inputs": [
        {
          "internalType": "address",
          "name": "from",
          "type": "address"
        },
        {
          "internalType": "address",
          "name": "to",
          "type": "address"
        },
        {
          "internalType": "uint256",
          "name": "tokenId",
          "type": "uint256"
        }
      ],
      "name": "transferFrom",
      "outputs": [],
      "stateMutability": "nonpayable",
      "type": "function"
    }
  ],
  "bytecode": "0x608060405234801561001057600080fd5b506040518060400160405280600581526020017f446f6769650000000000000000000000000000000000000000000000000000008152506040518060400160405280600381526020017f444f470000000000000000000000000000000000000000000000000000000000815250816000908161008c91906102fc565b50806001908161009c91906102fc565b50505060006006819055506103ce565b600081519050919050565b7f4e487b7100000000000000000000000000000000000000000000000000000000600052604160045260246000fd5b7f4e487b7100000000000000000000000000000000000000000000000000000000600052602260045260246000fd5b6000600282049050600182168061012d57607f821691505b6020821081036101405761013f6100e6565b5b50919050565b60008190508160005260206000209050919050565b60006020601f8301049050919050565b600082821b905092915050565b6000600883026101a87fffffffffffffffffffffffffffffffffffffffffffffffffffffffffffffffff8261016b565b6101b2868361016b565b95508019841693508086168417925050509392505050565b6000819050919050565b6000819050919050565b60006101f96101f46101ef846101ca565b6101d4565b6101ca565b9050919050565b6000819050919050565b610213836101de565b61022761021f82610200565b848454610178565b825550505050565b600090565b61023c61022f565b61024781848461020a565b505050565b5b8181101561026b57610260600082610234565b60018101905061024d565b5050565b601f8211156102b05761028181610146565b61028a8461015b565b81016020851015610299578190505b6102ad6102a58561015b565b83018261024c565b50505b505050565b600082821c905092915050565b60006102d3600019846008026102b5565b1980831691505092915050565b60006102ec83836102c2565b9150826002028217905092915050565b610305826100ac565b67ffffffffffffffff81111561031e5761031d6100b7565b5b6103288254610115565b61033382828561026f565b600060209050601f8311600181146103665760008415610354578287015190505b61035e85826102e0565b8655506103c6565b601f19841661037486610146565b60005b8281101561039c57848901518255600182019150602085019450602081019050610377565b868310156103b957848901516103b5601f8916826102c2565b8355505b6001600288020188555050505b505050505050565b611c41806103dd6000396000f3fe608060405234801561001057600080fd5b50600436106101005760003560e01c806370a0823111610097578063b88d4fde11610066578063b88d4fde146102ad578063c2229fea146102c9578063c87b56dd146102e7578063e985e9c51461031757610100565b806370a082311461022557806378ce90351461025557806395d89b4114610273578063a22cb4651461029157610100565b806323b872dd116100d357806323b872dd1461019f57806342842e0e146101bb5780636352211e146101d75780636e02007d1461020757610100565b806301ffc9a71461010557806306fdde0314610135578063081812fc14610153578063095ea7b314610183575b600080fd5b61011f600480360381019061011a9190611460565b610347565b60405161012c91906114a8565b60405180910390f35b61013d610429565b60405161014a9190611553565b60405180910390f35b61016d600480360381019061016891906115ab565b6104bb565b60405161017a9190611619565b60405180910390f35b61019d60048036038101906101989190611660565b6104d7565b005b6101b960048036038101906101b491906116a0565b6104ed565b005b6101d560048036038101906101d091906116a0565b6105ef565b005b6101f160048036038101906101ec91906115ab565b61060f565b6040516101fe9190611619565b60405180910390f35b61020f610621565b60405161021c9190611702565b60405180910390f35b61023f600480360381019061023a919061171d565b61062b565b60405161024c9190611702565b60405180910390f35b61025d6106e5565b60405161026a9190611553565b60405180910390f35b61027b610701565b6040516102889190611553565b60405180910390f35b6102ab60048036038101906102a69190611776565b610793565b005b6102c760048036038101906102c291906118eb565b6107a9565b005b6102d16107ce565b6040516102de9190611702565b60405180910390f35b61030160048036038101906102fc91906115ab565b6107f9565b60405161030e9190611553565b60405180910390f35b610331600480360381019061032c919061196e565b61081b565b60405161033e91906114a8565b60405180910390f35b60007f80ac58cd000000000000000000000000000000000000000000000000000000007bffffffffffffffffffffffffffffffffffffffffffffffffffffffff1916827bffffffffffffffffffffffffffffffffffffffffffffffffffffffff1916148061041257507f5b5e139f000000000000000000000000000000000000000000000000000000007bffffffffffffffffffffffffffffffffffffffffffffffffffffffff1916827bffffffffffffffffffffffffffffffffffffffffffffffffffffffff1916145b806104225750610421826108af565b5b9050919050565b606060008054610438906119dd565b80601f0160208091040260200160405190810160405280929190818152602001828054610464906119dd565b80156104b15780601f10610486576101008083540402835291602001916104b1565b820191906000526020600020905b81548152906001019060200180831161049457829003601f168201915b5050505050905090565b60006104c682610919565b506104d0826109a1565b9050919050565b6104e982826104e46109de565b6109e6565b5050565b600073ffffffffffffffffffffffffffffffffffffffff168273ffffffffffffffffffffffffffffffffffffffff160361055f5760006040517f64a0ae920000000000000000000000000000000000000000000000000000000081526004016105569190611619565b60405180910390fd5b6000610573838361056e6109de565b6109f8565b90508373ffffffffffffffffffffffffffffffffffffffff168173ffffffffffffffffffffffffffffffffffffffff16146105e9578382826040517f64283d7b0000000000000000000000000000000000000000000000000000000081526004016105e093929190611a0e565b60405180910390fd5b50505050565b61060a838383604051806020016040528060008152506107a9565b505050565b600061061a82610919565b9050919050565b6000600654905090565b60008073ffffffffffffffffffffffffffffffffffffffff168273ffffffffffffffffffffffffffffffffffffffff160361069e5760006040517f89c62b640000000000000000000000000000000000000000000000000000000081526004016106959190611619565b60405180910390fd5b600360008373ffffffffffffffffffffffffffffffffffffffff1673ffffffffffffffffffffffffffffffffffffffff168152602001908152602001600020549050919050565b604051806080016040528060578152602001611bb56057913981565b606060018054610710906119dd565b80601f016020809104026020016040519081016040528092919081815260200182805461073c906119dd565b80156107895780601f1061075e57610100808354040283529160200191610789565b820191906000526020600020905b81548152906001019060200180831161076c57829003601f168201915b5050505050905090565b6107a561079e6109de565b8383610c12565b5050565b6107b48484846104ed565b6107c86107bf6109de565b85858585610d81565b50505050565b60006107dc33600654610f32565b60016006546107eb9190611a74565b600681905550600654905090565b6060604051806080016040528060578152602001611bb5605791399050919050565b6000600560008473ffffffffffffffffffffffffffffffffffffffff1673ffffffffffffffffffffffffffffffffffffffff16815260200190815260200160002060008373ffffffffffffffffffffffffffffffffffffffff1673ffffffffffffffffffffffffffffffffffffffff16815260200190815260200160002060009054906101000a900460ff16905092915050565b60007f01ffc9a7000000000000000000000000000000000000000000000000000000007bffffffffffffffffffffffffffffffffffffffffffffffffffffffff1916827bffffffffffffffffffffffffffffffffffffffffffffffffffffffff1916149050919050565b60008061092583610f50565b9050600073ffffffffffffffffffffffffffffffffffffffff168173ffffffffffffffffffffffffffffffffffffffff160361099857826040517f7e27328900000000000000000000000000000000000000000000000000000000815260040161098f9190611702565b60405180910390fd5b80915050919050565b60006004600083815260200190815260200160002060009054906101000a900473ffffffffffffffffffffffffffffffffffffffff169050919050565b600033905090565b6109f38383836001610f8d565b505050565b600080610a0484610f50565b9050600073ffffffffffffffffffffffffffffffffffffffff168373ffffffffffffffffffffffffffffffffffffffff1614610a4657610a45818486611152565b5b600073ffffffffffffffffffffffffffffffffffffffff168173ffffffffffffffffffffffffffffffffffffffff1614610ad757610a88600085600080610f8d565b6001600360008373ffffffffffffffffffffffffffffffffffffffff1673ffffffffffffffffffffffffffffffffffffffff168152602001908152602001600020600082825403925050819055505b600073ffffffffffffffffffffffffffffffffffffffff168573ffffffffffffffffffffffffffffffffffffffff1614610b5a576001600360008773ffffffffffffffffffffffffffffffffffffffff1673ffffffffffffffffffffffffffffffffffffffff168152602001908152602001600020600082825401925050819055505b846002600086815260200190815260200160002060006101000a81548173ffffffffffffffffffffffffffffffffffffffff021916908373ffffffffffffffffffffffffffffffffffffffff160217905550838573ffffffffffffffffffffffffffffffffffffffff168273ffffffffffffffffffffffffffffffffffffffff167fddf252ad1be2c89b69c2b068fc378daa952ba7f163c4a11628f55a4df523b3ef60405160405180910390a4809150509392505050565b600073ffffffffffffffffffffffffffffffffffffffff168273ffffffffffffffffffffffffffffffffffffffff1603610c8357816040517f5b08ba18000000000000000000000000000000000000000000000000000000008152600401610c7a9190611619565b60405180910390fd5b80600560008573ffffffffffffffffffffffffffffffffffffffff1673ffffffffffffffffffffffffffffffffffffffff16815260200190815260200160002060008473ffffffffffffffffffffffffffffffffffffffff1673ffffffffffffffffffffffffffffffffffffffff16815260200190815260200160002060006101000a81548160ff0219169083151502179055508173ffffffffffffffffffffffffffffffffffffffff168373ffffffffffffffffffffffffffffffffffffffff167f17307eab39ab6107e8899845ad3d59bd9653f200f220920489ca2b5937696c3183604051610d7491906114a8565b60405180910390a3505050565b60008373ffffffffffffffffffffffffffffffffffffffff163b1115610f2b578273ffffffffffffffffffffffffffffffffffffffff1663150b7a02868685856040518563ffffffff1660e01b8152600401610de09493929190611afd565b6020604051808303816000875af1925050508015610e1c57506040513d601f19601f82011682018060405250810190610e199190611b5e565b60015b610ea0573d8060008114610e4c576040519150601f19603f3d011682016040523d82523d6000602084013e610e51565b606091505b506000815103610e9857836040517f64a0ae92000000000000000000000000000000000000000000000000000000008152600401610e8f9190611619565b60405180910390fd5b805160208201fd5b63150b7a0260e01b7bffffffffffffffffffffffffffffffffffffffffffffffffffffffff1916817bffffffffffffffffffffffffffffffffffffffffffffffffffffffff191614610f2957836040517f64a0ae92000000000000000000000000000000000000000000000000000000008152600401610f209190611619565b60405180910390fd5b505b5050505050565b610f4c828260405180602001604052806000815250611216565b5050565b60006002600083815260200190815260200160002060009054906101000a900473ffffffffffffffffffffffffffffffffffffffff169050919050565b8080610fc65750600073ffffffffffffffffffffffffffffffffffffffff168273ffffffffffffffffffffffffffffffffffffffff1614155b156110fa576000610fd684610919565b9050600073ffffffffffffffffffffffffffffffffffffffff168373ffffffffffffffffffffffffffffffffffffffff161415801561104157508273ffffffffffffffffffffffffffffffffffffffff168173ffffffffffffffffffffffffffffffffffffffff1614155b80156110545750611052818461081b565b155b1561109657826040517fa9fbf51f00000000000000000000000000000000000000000000000000000000815260040161108d9190611619565b60405180910390fd5b81156110f857838573ffffffffffffffffffffffffffffffffffffffff168273ffffffffffffffffffffffffffffffffffffffff167f8c5be1e5ebec7d5bd14f71427d1e84f3dd0314c0f7b2291e5b200ac8c7c3b92560405160405180910390a45b505b836004600085815260200190815260200160002060006101000a81548173ffffffffffffffffffffffffffffffffffffffff021916908373ffffffffffffffffffffffffffffffffffffffff16021790555050505050565b61115d83838361123a565b61121157600073ffffffffffffffffffffffffffffffffffffffff168373ffffffffffffffffffffffffffffffffffffffff16036111d257806040517f7e2732890000000000000000000000000000000000000000000000000000000081526004016111c99190611702565b60405180910390fd5b81816040517f177e802f000000000000000000000000000000000000000000000000000000008152600401611208929190611b8b565b60405180910390fd5b505050565b61122083836112fb565b61123561122b6109de565b6000858585610d81565b505050565b60008073ffffffffffffffffffffffffffffffffffffffff168373ffffffffffffffffffffffffffffffffffffffff16141580156112f257508273ffffffffffffffffffffffffffffffffffffffff168473ffffffffffffffffffffffffffffffffffffffff1614806112b357506112b2848461081b565b5b806112f157508273ffffffffffffffffffffffffffffffffffffffff166112d9836109a1565b73ffffffffffffffffffffffffffffffffffffffff16145b5b90509392505050565b600073ffffffffffffffffffffffffffffffffffffffff168273ffffffffffffffffffffffffffffffffffffffff160361136d5760006040517f64a0ae920000000000000000000000000000000000000000000000000000000081526004016113649190611619565b60405180910390fd5b600061137b838360006109f8565b9050600073ffffffffffffffffffffffffffffffffffffffff168173ffffffffffffffffffffffffffffffffffffffff16146113ef5760006040517f73c6ac6e0000000000000000000000000000000000000000000000000000000081526004016113e69190611619565b60405180910390fd5b505050565b6000604051905090565b600080fd5b600080fd5b60007fffffffff0000000000000000000000000000000000000000000000000000000082169050919050565b61143d81611408565b811461144857600080fd5b50565b60008135905061145a81611434565b92915050565b600060208284031215611476576114756113fe565b5b60006114848482850161144b565b91505092915050565b60008115159050919050565b6114a28161148d565b82525050565b60006020820190506114bd6000830184611499565b92915050565b600081519050919050565b600082825260208201905092915050565b60005b838110156114fd5780820151818401526020810190506114e2565b60008484015250505050565b6000601f19601f8301169050919050565b6000611525826114c3565b61152f81856114ce565b935061153f8185602086016114df565b61154881611509565b840191505092915050565b6000602082019050818103600083015261156d818461151a565b905092915050565b6000819050919050565b61158881611575565b811461159357600080fd5b50565b6000813590506115a58161157f565b92915050565b6000602082840312156115c1576115c06113fe565b5b60006115cf84828501611596565b91505092915050565b600073ffffffffffffffffffffffffffffffffffffffff82169050919050565b6000611603826115d8565b9050919050565b611613816115f8565b82525050565b600060208201905061162e600083018461160a565b92915050565b61163d816115f8565b811461164857600080fd5b50565b60008135905061165a81611634565b92915050565b60008060408385031215611677576116766113fe565b5b60006116858582860161164b565b925050602061169685828601611596565b9150509250929050565b6000806000606084860312156116b9576116b86113fe565b5b60006116c78682870161164b565b93505060206116d88682870161164b565b92505060406116e986828701611596565b9150509250925092565b6116fc81611575565b82525050565b600060208201905061171760008301846116f3565b92915050565b600060208284031215611733576117326113fe565b5b60006117418482850161164b565b91505092915050565b6117538161148d565b811461175e57600080fd5b50565b6000813590506117708161174a565b92915050565b6000806040838503121561178d5761178c6113fe565b5b600061179b8582860161164b565b92505060206117ac85828601611761565b9150509250929050565b600080fd5b600080fd5b7f4e487b7100000000000000000000000000000000000000000000000000000000600052604160045260246000fd5b6117f882611509565b810181811067ffffffffffffffff82111715611817576118166117c0565b5b80604052505050565b600061182a6113f4565b905061183682826117ef565b919050565b600067ffffffffffffffff821115611856576118556117c0565b5b61185f82611509565b9050602081019050919050565b82818337600083830152505050565b600061188e6118898461183b565b611820565b9050828152602081018484840111156118aa576118a96117bb565b5b6118b584828561186c565b509392505050565b600082601f8301126118d2576118d16117b6565b5b81356118e284826020860161187b565b91505092915050565b60008060008060808587031215611905576119046113fe565b5b60006119138782880161164b565b94505060206119248782880161164b565b935050604061193587828801611596565b925050606085013567ffffffffffffffff81111561195657611955611403565b5b611962878288016118bd565b91505092959194509250565b60008060408385031215611985576119846113fe565b5b60006119938582860161164b565b92505060206119a48582860161164b565b9150509250929050565b7f4e487b7100000000000000000000000000000000000000000000000000000000600052602260045260246000fd5b600060028204905060018216806119f557607f821691505b602082108103611a0857611a076119ae565b5b50919050565b6000606082019050611a23600083018661160a565b611a3060208301856116f3565b611a3d604083018461160a565b949350505050565b7f4e487b7100000000000000000000000000000000000000000000000000000000600052601160045260246000fd5b6000611a7f82611575565b9150611a8a83611575565b9250828201905080821115611aa257611aa1611a45565b5b92915050565b600081519050919050565b600082825260208201905092915050565b6000611acf82611aa8565b611ad98185611ab3565b9350611ae98185602086016114df565b611af281611509565b840191505092915050565b6000608082019050611b12600083018761160a565b611b1f602083018661160a565b611b2c60408301856116f3565b8181036060830152611b3e8184611ac4565b905095945050505050565b600081519050611b5881611434565b92915050565b600060208284031215611b7457611b736113fe565b5b6000611b8284828501611b49565b91505092915050565b6000604082019050611ba0600083018561160a565b611bad60208301846116f3565b939250505056fe697066733a2f2f62616679626569673337696f6972373673376d67356f6f6265746e636f6a636d3363336878617379643472766964346a71687934676b61686567342f3f66696c656e616d653d302d5055472e6a736f6ea264697066735822122019cc0e73fc24910ee1c5c4e87e5bd2d48f116b70c03bbc0551f83b9690cc97ed64736f6c634300081c0033",
  "linkReferences": {},
  "deployedLinkReferences": {}
}