{
  "_format": "hh-sol-artifact-1",
  "contractName": "DynamicSvgNft",
  "sourceName": "contracts/DynamicSvgNft.sol",
  "abi": [
    {
      "inputs": [
        {
          "internalType": "address",
          "name": "priceFeedAddress",
          "type": "address"
        },
        {
          "internalType": "string",
          "name": "lowSvg",
          "type": "string"
        },
        {
          "internalType": "string",
          "name": "highSvg",
          "type": "string"
        }
      ],
      "stateMutability": "nonpayable",
      "type": "constructor"
    },
    {
      "inputs": [
        {
          "internalType": "address",
          "name": "sender",
          "type": "address"
        },
        {
          "internalType": "uint256",
          "name": "tokenId",
          "type": "uint256"
        },
        {
          "internalType": "address",
          "name": "owner",
          "type": "address"
        }
      ],
      "name": "ERC721IncorrectOwner",
      "type": "error"
    },
    {
      "inputs": [
        {
          "internalType": "address",
          "name": "operator",
          "type": "address"
        },
        {
          "internalType": "uint256",
          "name": "tokenId",
          "type": "uint256"
        }
      ],
      "name": "ERC721InsufficientApproval",
      "type": "error"
    },
    {
      "inputs": [
        {
          "internalType": "address",
          "name": "approver",
          "type": "address"
        }
      ],
      "name": "ERC721InvalidApprover",
      "type": "error"
    },
    {
      "inputs": [
        {
          "internalType": "address",
          "name": "operator",
          "type": "address"
        }
      ],
      "name": "ERC721InvalidOperator",
      "type": "error"
    },
    {
      "inputs": [
        {
          "internalType": "address",
          "name": "owner",
          "type": "address"
        }
      ],
      "name": "ERC721InvalidOwner",
      "type": "error"
    },
    {
      "inputs": [
        {
          "internalType": "address",
          "name": "receiver",
          "type": "address"
        }
      ],
      "name": "ERC721InvalidReceiver",
      "type": "error"
    },
    {
      "inputs": [
        {
          "internalType": "address",
          "name": "sender",
          "type": "address"
        }
      ],
      "name": "ERC721InvalidSender",
      "type": "error"
    },
    {
      "inputs": [
        {
          "internalType": "uint256",
          "name": "tokenId",
          "type": "uint256"
        }
      ],
      "name": "ERC721NonexistentToken",
      "type": "error"
    },
    {
      "inputs": [
        {
          "internalType": "address",
          "name": "owner",
          "type": "address"
        }
      ],
      "name": "OwnableInvalidOwner",
      "type": "error"
    },
    {
      "inputs": [
        {
          "internalType": "address",
          "name": "account",
          "type": "address"
        }
      ],
      "name": "OwnableUnauthorizedAccount",
      "type": "error"
    },
    {
      "anonymous": false,
      "inputs": [
        {
          "indexed": true,
          "internalType": "address",
          "name": "owner",
          "type": "address"
        },
        {
          "indexed": true,
          "internalType": "address",
          "name": "approved",
          "type": "address"
        },
        {
          "indexed": true,
          "internalType": "uint256",
          "name": "tokenId",
          "type": "uint256"
        }
      ],
      "name": "Approval",
      "type": "event"
    },
    {
      "anonymous": false,
      "inputs": [
        {
          "indexed": true,
          "internalType": "address",
          "name": "owner",
          "type": "address"
        },
        {
          "indexed": true,
          "internalType": "address",
          "name": "operator",
          "type": "address"
        },
        {
          "indexed": false,
          "internalType": "bool",
          "name": "approved",
          "type": "bool"
        }
      ],
      "name": "ApprovalForAll",
      "type": "event"
    },
    {
      "anonymous": false,
      "inputs": [
        {
          "indexed": true,
          "internalType": "uint256",
          "name": "tokenId",
          "type": "uint256"
        },
        {
          "indexed": false,
          "internalType": "int256",
          "name": "highValue",
          "type": "int256"
        }
      ],
      "name": "CreatedNFT",
      "type": "event"
    },
    {
      "anonymous": false,
      "inputs": [
        {
          "indexed": true,
          "internalType": "address",
          "name": "previousOwner",
          "type": "address"
        },
        {
          "indexed": true,
          "internalType": "address",
          "name": "newOwner",
          "type": "address"
        }
      ],
      "name": "OwnershipTransferred",
      "type": "event"
    },
    {
      "anonymous": false,
      "inputs": [
        {
          "indexed": true,
          "internalType": "address",
          "name": "from",
          "type": "address"
        },
        {
          "indexed": true,
          "internalType": "address",
          "name": "to",
          "type": "address"
        },
        {
          "indexed": true,
          "internalType": "uint256",
          "name": "tokenId",
          "type": "uint256"
        }
      ],
      "name": "Transfer",
      "type": "event"
    },
    {
      "inputs": [
        {
          "internalType": "address",
          "name": "to",
          "type": "address"
        },
        {
          "internalType": "uint256",
          "name": "tokenId",
          "type": "uint256"
        }
      ],
      "name": "approve",
      "outputs": [],
      "stateMutability": "nonpayable",
      "type": "function"
    },
    {
      "inputs": [
        {
          "internalType": "address",
          "name": "owner",
          "type": "address"
        }
      ],
      "name": "balanceOf",
      "outputs": [
        {
          "internalType": "uint256",
          "name": "",
          "type": "uint256"
        }
      ],
      "stateMutability": "view",
      "type": "function"
    },
    {
      "inputs": [
        {
          "internalType": "uint256",
          "name": "tokenId",
          "type": "uint256"
        }
      ],
      "name": "getApproved",
      "outputs": [
        {
          "internalType": "address",
          "name": "",
          "type": "address"
        }
      ],
      "stateMutability": "view",
      "type": "function"
    },
    {
      "inputs": [],
      "name": "getHighSVG",
      "outputs": [
        {
          "internalType": "string",
          "name": "",
          "type": "string"
        }
      ],
      "stateMutability": "view",
      "type": "function"
    },
    {
      "inputs": [],
      "name": "getLowSVG",
      "outputs": [
        {
          "internalType": "string",
          "name": "",
          "type": "string"
        }
      ],
      "stateMutability": "view",
      "type": "function"
    },
    {
      "inputs": [],
      "name": "getPriceFeed",
      "outputs": [
        {
          "internalType": "contract AggregatorV3Interface",
          "name": "",
          "type": "address"
        }
      ],
      "stateMutability": "view",
      "type": "function"
    },
    {
      "inputs": [],
      "name": "getTokenCounter",
      "outputs": [
        {
          "internalType": "uint256",
          "name": "",
          "type": "uint256"
        }
      ],
      "stateMutability": "view",
      "type": "function"
    },
    {
      "inputs": [
        {
          "internalType": "address",
          "name": "owner",
          "type": "address"
        },
        {
          "internalType": "address",
          "name": "operator",
          "type": "address"
        }
      ],
      "name": "isApprovedForAll",
      "outputs": [
        {
          "internalType": "bool",
          "name": "",
          "type": "bool"
        }
      ],
      "stateMutability": "view",
      "type": "function"
    },
    {
      "inputs": [
        {
          "internalType": "int256",
          "name": "highValue",
          "type": "int256"
        }
      ],
      "name": "mintNft",
      "outputs": [],
      "stateMutability": "nonpayable",
      "type": "function"
    },
    {
      "inputs": [],
      "name": "name",
      "outputs": [
        {
          "internalType": "string",
          "name": "",
          "type": "string"
        }
      ],
      "stateMutability": "view",
      "type": "function"
    },
    {
      "inputs": [],
      "name": "owner",
      "outputs": [
        {
          "internalType": "address",
          "name": "",
          "type": "address"
        }
      ],
      "stateMutability": "view",
      "type": "function"
    },
    {
      "inputs": [
        {
          "internalType": "uint256",
          "name": "tokenId",
          "type": "uint256"
        }
      ],
      "name": "ownerOf",
      "outputs": [
        {
          "internalType": "address",
          "name": "",
          "type": "address"
        }
      ],
      "stateMutability": "view",
      "type": "function"
    },
    {
      "inputs": [],
      "name": "renounceOwnership",
      "outputs": [],
      "stateMutability": "nonpayable",
      "type": "function"
    },
    {
      "inputs": [
        {
          "internalType": "address",
          "name": "from",
          "type": "address"
        },
        {
          "internalType": "address",
          "name": "to",
          "type": "address"
        },
        {
          "internalType": "uint256",
          "name": "tokenId",
          "type": "uint256"
        }
      ],
      "name": "safeTransferFrom",
      "outputs": [],
      "stateMutability": "nonpayable",
      "type": "function"
    },
    {
      "inputs": [
        {
          "internalType": "address",
          "name": "from",
          "type": "address"
        },
        {
          "internalType": "address",
          "name": "to",
          "type": "address"
        },
        {
          "internalType": "uint256",
          "name": "tokenId",
          "type": "uint256"
        },
        {
          "internalType": "bytes",
          "name": "data",
          "type": "bytes"
        }
      ],
      "name": "safeTransferFrom",
      "outputs": [],
      "stateMutability": "nonpayable",
      "type": "function"
    },
    {
      "inputs": [
        {
          "internalType": "address",
          "name": "operator",
          "type": "address"
        },
        {
          "internalType": "bool",
          "name": "approved",
          "type": "bool"
        }
      ],
      "name": "setApprovalForAll",
      "outputs": [],
      "stateMutability": "nonpayable",
      "type": "function"
    },
    {
      "inputs": [
        {
          "internalType": "bytes4",
          "name": "interfaceId",
          "type": "bytes4"
        }
      ],
      "name": "supportsInterface",
      "outputs": [
        {
          "internalType": "bool",
          "name": "",
          "type": "bool"
        }
      ],
      "stateMutability": "view",
      "type": "function"
    },
    {
      "inputs": [
        {
          "internalType": "string",
          "name": "svg",
          "type": "string"
        }
      ],
      "name": "svgToImageURI",
      "outputs": [
        {
          "internalType": "string",
          "name": "",
          "type": "string"
        }
      ],
      "stateMutability": "pure",
      "type": "function"
    },
    {
      "inputs": [],
      "name": "symbol",
      "outputs": [
        {
          "internalType": "string",
          "name": "",
          "type": "string"
        }
      ],
      "stateMutability": "view",
      "type": "function"
    },
    {
      "inputs": [
        {
          "internalType": "uint256",
          "name": "tokenId",
          "type": "uint256"
        }
      ],
      "name": "tokenURI",
      "outputs": [
        {
          "internalType": "string",
          "name": "",
          "type": "string"
        }
      ],
      "stateMutability": "view",
      "type": "function"
    },
    {
      "inputs": [
        {
          "internalType": "address",
          "name": "from",
          "type": "address"
        },
        {
          "internalType": "address",
          "name": "to",
          "type": "address"
        },
        {
          "internalType": "uint256",
          "name": "tokenId",
          "type": "uint256"
        }
      ],
      "name": "transferFrom",
      "outputs": [],
      "stateMutability": "nonpayable",
      "type": "function"
    },
    {
      "inputs": [
        {
          "internalType": "address",
          "name": "newOwner",
          "type": "address"
        }
      ],
      "name": "transferOwnership",
      "outputs": [],
      "stateMutability": "nonpayable",
      "type": "function"
    }
  ],
  "bytecode": "0x60a060405234801561001057600080fd5b506040516137063803806137068339818101604052810190610032919061066d565b336040518060400160405280600f81526020017f44796e616d696320535647204e465400000000000000000000000000000000008152506040518060400160405280600381526020017f44534e000000000000000000000000000000000000000000000000000000000081525081600090816100ae9190610919565b5080600190816100be9190610919565b505050600073ffffffffffffffffffffffffffffffffffffffff168173ffffffffffffffffffffffffffffffffffffffff16036101335760006040517f1e4fbdf700000000000000000000000000000000000000000000000000000000815260040161012a91906109fa565b60405180910390fd5b610142816101c360201b60201c565b5060006007819055508273ffffffffffffffffffffffffffffffffffffffff1660808173ffffffffffffffffffffffffffffffffffffffff168152505061018e8261028960201b60201c565b6008908161019c9190610919565b506101ac8161028960201b60201c565b600990816101ba9190610919565b50505050610b91565b6000600660009054906101000a900473ffffffffffffffffffffffffffffffffffffffff16905081600660006101000a81548173ffffffffffffffffffffffffffffffffffffffff021916908373ffffffffffffffffffffffffffffffffffffffff1602179055508173ffffffffffffffffffffffffffffffffffffffff168173ffffffffffffffffffffffffffffffffffffffff167f8be0079c531659141344cd1fd0a4f28419497f9722a3daafe3b4186f6b6457e060405160405180910390a35050565b606060006040518060400160405280601a81526020017f646174613a696d6167652f7376672b786d6c3b6261736536342c000000000000815250905060006102f5846040516020016102db9190610a51565b60405160208183030381529060405261032260201b60201c565b9050818160405160200161030a929190610a68565b60405160208183030381529060405292505050919050565b6060600082510361034457604051806020016040528060008152509050610495565b60006040518060600160405280604081526020016136c660409139905060006003600285516103739190610abb565b61037d9190610b1e565b60046103899190610b4f565b9050600060208261039a9190610abb565b67ffffffffffffffff8111156103b3576103b2610527565b5b6040519080825280601f01601f1916602001820160405280156103e55781602001600182028036833780820191505090505b509050818152600183018586518101602084015b81831015610454576003830192508251603f8160121c168501518253600182019150603f81600c1c168501518253600182019150603f8160061c168501518253600182019150603f81168501518253600182019150506103f9565b60038951066001811461046e576002811461047e57610489565b613d3d60f01b6002830352610489565b603d60f81b60018303525b50505050508093505050505b919050565b6000604051905090565b600080fd5b600080fd5b600073ffffffffffffffffffffffffffffffffffffffff82169050919050565b60006104d9826104ae565b9050919050565b6104e9816104ce565b81146104f457600080fd5b50565b600081519050610506816104e0565b92915050565b600080fd5b600080fd5b6000601f19601f8301169050919050565b7f4e487b7100000000000000000000000000000000000000000000000000000000600052604160045260246000fd5b61055f82610516565b810181811067ffffffffffffffff8211171561057e5761057d610527565b5b80604052505050565b600061059161049a565b905061059d8282610556565b919050565b600067ffffffffffffffff8211156105bd576105bc610527565b5b6105c682610516565b9050602081019050919050565b60005b838110156105f15780820151818401526020810190506105d6565b60008484015250505050565b600061061061060b846105a2565b610587565b90508281526020810184848401111561062c5761062b610511565b5b6106378482856105d3565b509392505050565b600082601f8301126106545761065361050c565b5b81516106648482602086016105fd565b91505092915050565b600080600060608486031215610686576106856104a4565b5b6000610694868287016104f7565b935050602084015167ffffffffffffffff8111156106b5576106b46104a9565b5b6106c18682870161063f565b925050604084015167ffffffffffffffff8111156106e2576106e16104a9565b5b6106ee8682870161063f565b9150509250925092565b600081519050919050565b7f4e487b7100000000000000000000000000000000000000000000000000000000600052602260045260246000fd5b6000600282049050600182168061074a57607f821691505b60208210810361075d5761075c610703565b5b50919050565b60008190508160005260206000209050919050565b60006020601f8301049050919050565b600082821b905092915050565b6000600883026107c57fffffffffffffffffffffffffffffffffffffffffffffffffffffffffffffffff82610788565b6107cf8683610788565b95508019841693508086168417925050509392505050565b6000819050919050565b6000819050919050565b600061081661081161080c846107e7565b6107f1565b6107e7565b9050919050565b6000819050919050565b610830836107fb565b61084461083c8261081d565b848454610795565b825550505050565b600090565b61085961084c565b610864818484610827565b505050565b5b818110156108885761087d600082610851565b60018101905061086a565b5050565b601f8211156108cd5761089e81610763565b6108a784610778565b810160208510156108b6578190505b6108ca6108c285610778565b830182610869565b50505b505050565b600082821c905092915050565b60006108f0600019846008026108d2565b1980831691505092915050565b600061090983836108df565b9150826002028217905092915050565b610922826106f8565b67ffffffffffffffff81111561093b5761093a610527565b5b6109458254610732565b61095082828561088c565b600060209050601f8311600181146109835760008415610971578287015190505b61097b85826108fd565b8655506109e3565b601f19841661099186610763565b60005b828110156109b957848901518255600182019150602085019450602081019050610994565b868310156109d657848901516109d2601f8916826108df565b8355505b6001600288020188555050505b505050505050565b6109f4816104ce565b82525050565b6000602082019050610a0f60008301846109eb565b92915050565b600081905092915050565b6000610a2b826106f8565b610a358185610a15565b9350610a458185602086016105d3565b80840191505092915050565b6000610a5d8284610a20565b915081905092915050565b6000610a748285610a20565b9150610a808284610a20565b91508190509392505050565b7f4e487b7100000000000000000000000000000000000000000000000000000000600052601160045260246000fd5b6000610ac6826107e7565b9150610ad1836107e7565b9250828201905080821115610ae957610ae8610a8c565b5b92915050565b7f4e487b7100000000000000000000000000000000000000000000000000000000600052601260045260246000fd5b6000610b29826107e7565b9150610b34836107e7565b925082610b4457610b43610aef565b5b828204905092915050565b6000610b5a826107e7565b9150610b65836107e7565b9250828202610b73816107e7565b91508282048414831517610b8a57610b89610a8c565b5b5092915050565b608051612b13610bb360003960008181610a460152610ab50152612b136000f3fe608060405234801561001057600080fd5b50600436106101425760003560e01c8063715018a6116100b8578063a22cb4651161007c578063a22cb46514610365578063b88d4fde14610381578063c87b56dd1461039d578063e985e9c5146103cd578063ed28a122146103fd578063f2fde38b1461041b57610142565b8063715018a6146102e357806376f6056b146102ed5780638da5cb5b1461030b57806395d89b41146103295780639e87a5cd1461034757610142565b806323b872dd1161010a57806323b872dd146101fd57806330d871c61461021957806342842e0e146102495780636352211e146102655780636e02007d1461029557806370a08231146102b357610142565b806301ffc9a71461014757806306fdde0314610177578063081812fc14610195578063095ea7b3146101c55780631e930812146101e1575b600080fd5b610161600480360381019061015c9190611d40565b610437565b60405161016e9190611d88565b60405180910390f35b61017f610519565b60405161018c9190611e33565b60405180910390f35b6101af60048036038101906101aa9190611e8b565b6105ab565b6040516101bc9190611ef9565b60405180910390f35b6101df60048036038101906101da9190611f40565b6105c7565b005b6101fb60048036038101906101f69190611fb6565b6105dd565b005b61021760048036038101906102129190611fe3565b610655565b005b610233600480360381019061022e919061216b565b610757565b6040516102409190611e33565b60405180910390f35b610263600480360381019061025e9190611fe3565b6107ea565b005b61027f600480360381019061027a9190611e8b565b61080a565b60405161028c9190611ef9565b60405180910390f35b61029d61081c565b6040516102aa91906121c3565b60405180910390f35b6102cd60048036038101906102c891906121de565b610826565b6040516102da91906121c3565b60405180910390f35b6102eb6108e0565b005b6102f56108f4565b6040516103029190611e33565b60405180910390f35b610313610986565b6040516103209190611ef9565b60405180910390f35b6103316109b0565b60405161033e9190611e33565b60405180910390f35b61034f610a42565b60405161035c919061226a565b60405180910390f35b61037f600480360381019061037a91906122b1565b610a6a565b005b61039b60048036038101906103969190612392565b610a80565b005b6103b760048036038101906103b29190611e8b565b610aa5565b6040516103c49190611e33565b60405180910390f35b6103e760048036038101906103e29190612415565b610ce1565b6040516103f49190611d88565b60405180910390f35b610405610d75565b6040516104129190611e33565b60405180910390f35b610435600480360381019061043091906121de565b610e07565b005b60007f80ac58cd000000000000000000000000000000000000000000000000000000007bffffffffffffffffffffffffffffffffffffffffffffffffffffffff1916827bffffffffffffffffffffffffffffffffffffffffffffffffffffffff1916148061050257507f5b5e139f000000000000000000000000000000000000000000000000000000007bffffffffffffffffffffffffffffffffffffffffffffffffffffffff1916827bffffffffffffffffffffffffffffffffffffffffffffffffffffffff1916145b80610512575061051182610e8d565b5b9050919050565b60606000805461052890612484565b80601f016020809104026020016040519081016040528092919081815260200182805461055490612484565b80156105a15780601f10610576576101008083540402835291602001916105a1565b820191906000526020600020905b81548152906001019060200180831161058457829003601f168201915b5050505050905090565b60006105b682610ef7565b506105c082610f7f565b9050919050565b6105d982826105d4610fbc565b610fc4565b5050565b80600a60006007548152602001908152602001600020819055506007547f882d3b5a729a8bb95cf6c0083c99b42ecd9637123d4425bd7b768877fd8af8b08260405161062991906124c4565b60405180910390a261063d33600754610fd6565b600160075461064c919061250e565b60078190555050565b600073ffffffffffffffffffffffffffffffffffffffff168273ffffffffffffffffffffffffffffffffffffffff16036106c75760006040517f64a0ae920000000000000000000000000000000000000000000000000000000081526004016106be9190611ef9565b60405180910390fd5b60006106db83836106d6610fbc565b610ff4565b90508373ffffffffffffffffffffffffffffffffffffffff168173ffffffffffffffffffffffffffffffffffffffff1614610751578382826040517f64283d7b00000000000000000000000000000000000000000000000000000000815260040161074893929190612542565b60405180910390fd5b50505050565b606060006040518060400160405280601a81526020017f646174613a696d6167652f7376672b786d6c3b6261736536342c000000000000815250905060006107bd846040516020016107a991906125b5565b60405160208183030381529060405261120e565b905081816040516020016107d29291906125cc565b60405160208183030381529060405292505050919050565b61080583838360405180602001604052806000815250610a80565b505050565b600061081582610ef7565b9050919050565b6000600754905090565b60008073ffffffffffffffffffffffffffffffffffffffff168273ffffffffffffffffffffffffffffffffffffffff16036108995760006040517f89c62b640000000000000000000000000000000000000000000000000000000081526004016108909190611ef9565b60405180910390fd5b600360008373ffffffffffffffffffffffffffffffffffffffff1673ffffffffffffffffffffffffffffffffffffffff168152602001908152602001600020549050919050565b6108e8611386565b6108f2600061140d565b565b60606009805461090390612484565b80601f016020809104026020016040519081016040528092919081815260200182805461092f90612484565b801561097c5780601f106109515761010080835404028352916020019161097c565b820191906000526020600020905b81548152906001019060200180831161095f57829003601f168201915b5050505050905090565b6000600660009054906101000a900473ffffffffffffffffffffffffffffffffffffffff16905090565b6060600180546109bf90612484565b80601f01602080910402602001604051908101604052809291908181526020018280546109eb90612484565b8015610a385780601f10610a0d57610100808354040283529160200191610a38565b820191906000526020600020905b815481529060010190602001808311610a1b57829003601f168201915b5050505050905090565b60007f0000000000000000000000000000000000000000000000000000000000000000905090565b610a7c610a75610fbc565b83836114d3565b5050565b610a8b848484610655565b610a9f610a96610fbc565b85858585611642565b50505050565b6060610ab082610ef7565b5060007f000000000000000000000000000000000000000000000000000000000000000073ffffffffffffffffffffffffffffffffffffffff1663feaf968c6040518163ffffffff1660e01b815260040160a060405180830381865afa158015610b1e573d6000803e3d6000fd5b505050506040513d601f19601f82011682018060405250810190610b42919061265c565b505050915050600060088054610b5790612484565b80601f0160208091040260200160405190810160405280929190818152602001828054610b8390612484565b8015610bd05780601f10610ba557610100808354040283529160200191610bd0565b820191906000526020600020905b815481529060010190602001808311610bb357829003601f168201915b50505050509050600a6000858152602001908152602001600020548212610c7f5760098054610bfe90612484565b80601f0160208091040260200160405190810160405280929190818152602001828054610c2a90612484565b8015610c775780601f10610c4c57610100808354040283529160200191610c77565b820191906000526020600020905b815481529060010190602001808311610c5a57829003601f168201915b505050505090505b610c876117f3565b610cb8610c92610519565b83604051602001610ca492919061289f565b60405160208183030381529060405261120e565b604051602001610cc99291906125cc565b60405160208183030381529060405292505050919050565b6000600560008473ffffffffffffffffffffffffffffffffffffffff1673ffffffffffffffffffffffffffffffffffffffff16815260200190815260200160002060008373ffffffffffffffffffffffffffffffffffffffff1673ffffffffffffffffffffffffffffffffffffffff16815260200190815260200160002060009054906101000a900460ff16905092915050565b606060088054610d8490612484565b80601f0160208091040260200160405190810160405280929190818152602001828054610db090612484565b8015610dfd5780601f10610dd257610100808354040283529160200191610dfd565b820191906000526020600020905b815481529060010190602001808311610de057829003601f168201915b5050505050905090565b610e0f611386565b600073ffffffffffffffffffffffffffffffffffffffff168173ffffffffffffffffffffffffffffffffffffffff1603610e815760006040517f1e4fbdf7000000000000000000000000000000000000000000000000000000008152600401610e789190611ef9565b60405180910390fd5b610e8a8161140d565b50565b60007f01ffc9a7000000000000000000000000000000000000000000000000000000007bffffffffffffffffffffffffffffffffffffffffffffffffffffffff1916827bffffffffffffffffffffffffffffffffffffffffffffffffffffffff1916149050919050565b600080610f0383611830565b9050600073ffffffffffffffffffffffffffffffffffffffff168173ffffffffffffffffffffffffffffffffffffffff1603610f7657826040517f7e273289000000000000000000000000000000000000000000000000000000008152600401610f6d91906121c3565b60405180910390fd5b80915050919050565b60006004600083815260200190815260200160002060009054906101000a900473ffffffffffffffffffffffffffffffffffffffff169050919050565b600033905090565b610fd1838383600161186d565b505050565b610ff0828260405180602001604052806000815250611a32565b5050565b60008061100084611830565b9050600073ffffffffffffffffffffffffffffffffffffffff168373ffffffffffffffffffffffffffffffffffffffff161461104257611041818486611a56565b5b600073ffffffffffffffffffffffffffffffffffffffff168173ffffffffffffffffffffffffffffffffffffffff16146110d35761108460008560008061186d565b6001600360008373ffffffffffffffffffffffffffffffffffffffff1673ffffffffffffffffffffffffffffffffffffffff168152602001908152602001600020600082825403925050819055505b600073ffffffffffffffffffffffffffffffffffffffff168573ffffffffffffffffffffffffffffffffffffffff1614611156576001600360008773ffffffffffffffffffffffffffffffffffffffff1673ffffffffffffffffffffffffffffffffffffffff168152602001908152602001600020600082825401925050819055505b846002600086815260200190815260200160002060006101000a81548173ffffffffffffffffffffffffffffffffffffffff021916908373ffffffffffffffffffffffffffffffffffffffff160217905550838573ffffffffffffffffffffffffffffffffffffffff168273ffffffffffffffffffffffffffffffffffffffff167fddf252ad1be2c89b69c2b068fc378daa952ba7f163c4a11628f55a4df523b3ef60405160405180910390a4809150509392505050565b6060600082510361123057604051806020016040528060008152509050611381565b6000604051806060016040528060408152602001612a9e604091399050600060036002855161125f919061250e565b611269919061291e565b6004611275919061294f565b90506000602082611286919061250e565b67ffffffffffffffff81111561129f5761129e612040565b5b6040519080825280601f01601f1916602001820160405280156112d15781602001600182028036833780820191505090505b509050818152600183018586518101602084015b81831015611340576003830192508251603f8160121c168501518253600182019150603f81600c1c168501518253600182019150603f8160061c168501518253600182019150603f81168501518253600182019150506112e5565b60038951066001811461135a576002811461136a57611375565b613d3d60f01b6002830352611375565b603d60f81b60018303525b50505050508093505050505b919050565b61138e610fbc565b73ffffffffffffffffffffffffffffffffffffffff166113ac610986565b73ffffffffffffffffffffffffffffffffffffffff161461140b576113cf610fbc565b6040517f118cdaa70000000000000000000000000000000000000000000000000000000081526004016114029190611ef9565b60405180910390fd5b565b6000600660009054906101000a900473ffffffffffffffffffffffffffffffffffffffff16905081600660006101000a81548173ffffffffffffffffffffffffffffffffffffffff021916908373ffffffffffffffffffffffffffffffffffffffff1602179055508173ffffffffffffffffffffffffffffffffffffffff168173ffffffffffffffffffffffffffffffffffffffff167f8be0079c531659141344cd1fd0a4f28419497f9722a3daafe3b4186f6b6457e060405160405180910390a35050565b600073ffffffffffffffffffffffffffffffffffffffff168273ffffffffffffffffffffffffffffffffffffffff160361154457816040517f5b08ba1800000000000000000000000000000000000000000000000000000000815260040161153b9190611ef9565b60405180910390fd5b80600560008573ffffffffffffffffffffffffffffffffffffffff1673ffffffffffffffffffffffffffffffffffffffff16815260200190815260200160002060008473ffffffffffffffffffffffffffffffffffffffff1673ffffffffffffffffffffffffffffffffffffffff16815260200190815260200160002060006101000a81548160ff0219169083151502179055508173ffffffffffffffffffffffffffffffffffffffff168373ffffffffffffffffffffffffffffffffffffffff167f17307eab39ab6107e8899845ad3d59bd9653f200f220920489ca2b5937696c31836040516116359190611d88565b60405180910390a3505050565b60008373ffffffffffffffffffffffffffffffffffffffff163b11156117ec578273ffffffffffffffffffffffffffffffffffffffff1663150b7a02868685856040518563ffffffff1660e01b81526004016116a194939291906129e6565b6020604051808303816000875af19250505080156116dd57506040513d601f19601f820116820180604052508101906116da9190612a47565b60015b611761573d806000811461170d576040519150601f19603f3d011682016040523d82523d6000602084013e611712565b606091505b50600081510361175957836040517f64a0ae920000000000000000000000000000000000000000000000000000000081526004016117509190611ef9565b60405180910390fd5b805160208201fd5b63150b7a0260e01b7bffffffffffffffffffffffffffffffffffffffffffffffffffffffff1916817bffffffffffffffffffffffffffffffffffffffffffffffffffffffff1916146117ea57836040517f64a0ae920000000000000000000000000000000000000000000000000000000081526004016117e19190611ef9565b60405180910390fd5b505b5050505050565b60606040518060400160405280601d81526020017f646174613a6170706c69636174696f6e2f6a736f6e3b6261736536342c000000815250905090565b60006002600083815260200190815260200160002060009054906101000a900473ffffffffffffffffffffffffffffffffffffffff169050919050565b80806118a65750600073ffffffffffffffffffffffffffffffffffffffff168273ffffffffffffffffffffffffffffffffffffffff1614155b156119da5760006118b684610ef7565b9050600073ffffffffffffffffffffffffffffffffffffffff168373ffffffffffffffffffffffffffffffffffffffff161415801561192157508273ffffffffffffffffffffffffffffffffffffffff168173ffffffffffffffffffffffffffffffffffffffff1614155b801561193457506119328184610ce1565b155b1561197657826040517fa9fbf51f00000000000000000000000000000000000000000000000000000000815260040161196d9190611ef9565b60405180910390fd5b81156119d857838573ffffffffffffffffffffffffffffffffffffffff168273ffffffffffffffffffffffffffffffffffffffff167f8c5be1e5ebec7d5bd14f71427d1e84f3dd0314c0f7b2291e5b200ac8c7c3b92560405160405180910390a45b505b836004600085815260200190815260200160002060006101000a81548173ffffffffffffffffffffffffffffffffffffffff021916908373ffffffffffffffffffffffffffffffffffffffff16021790555050505050565b611a3c8383611b1a565b611a51611a47610fbc565b6000858585611642565b505050565b611a61838383611c13565b611b1557600073ffffffffffffffffffffffffffffffffffffffff168373ffffffffffffffffffffffffffffffffffffffff1603611ad657806040517f7e273289000000000000000000000000000000000000000000000000000000008152600401611acd91906121c3565b60405180910390fd5b81816040517f177e802f000000000000000000000000000000000000000000000000000000008152600401611b0c929190612a74565b60405180910390fd5b505050565b600073ffffffffffffffffffffffffffffffffffffffff168273ffffffffffffffffffffffffffffffffffffffff1603611b8c5760006040517f64a0ae92000000000000000000000000000000000000000000000000000000008152600401611b839190611ef9565b60405180910390fd5b6000611b9a83836000610ff4565b9050600073ffffffffffffffffffffffffffffffffffffffff168173ffffffffffffffffffffffffffffffffffffffff1614611c0e5760006040517f73c6ac6e000000000000000000000000000000000000000000000000000000008152600401611c059190611ef9565b60405180910390fd5b505050565b60008073ffffffffffffffffffffffffffffffffffffffff168373ffffffffffffffffffffffffffffffffffffffff1614158015611ccb57508273ffffffffffffffffffffffffffffffffffffffff168473ffffffffffffffffffffffffffffffffffffffff161480611c8c5750611c8b8484610ce1565b5b80611cca57508273ffffffffffffffffffffffffffffffffffffffff16611cb283610f7f565b73ffffffffffffffffffffffffffffffffffffffff16145b5b90509392505050565b6000604051905090565b600080fd5b600080fd5b60007fffffffff0000000000000000000000000000000000000000000000000000000082169050919050565b611d1d81611ce8565b8114611d2857600080fd5b50565b600081359050611d3a81611d14565b92915050565b600060208284031215611d5657611d55611cde565b5b6000611d6484828501611d2b565b91505092915050565b60008115159050919050565b611d8281611d6d565b82525050565b6000602082019050611d9d6000830184611d79565b92915050565b600081519050919050565b600082825260208201905092915050565b60005b83811015611ddd578082015181840152602081019050611dc2565b60008484015250505050565b6000601f19601f8301169050919050565b6000611e0582611da3565b611e0f8185611dae565b9350611e1f818560208601611dbf565b611e2881611de9565b840191505092915050565b60006020820190508181036000830152611e4d8184611dfa565b905092915050565b6000819050919050565b611e6881611e55565b8114611e7357600080fd5b50565b600081359050611e8581611e5f565b92915050565b600060208284031215611ea157611ea0611cde565b5b6000611eaf84828501611e76565b91505092915050565b600073ffffffffffffffffffffffffffffffffffffffff82169050919050565b6000611ee382611eb8565b9050919050565b611ef381611ed8565b82525050565b6000602082019050611f0e6000830184611eea565b92915050565b611f1d81611ed8565b8114611f2857600080fd5b50565b600081359050611f3a81611f14565b92915050565b60008060408385031215611f5757611f56611cde565b5b6000611f6585828601611f2b565b9250506020611f7685828601611e76565b9150509250929050565b6000819050919050565b611f9381611f80565b8114611f9e57600080fd5b50565b600081359050611fb081611f8a565b92915050565b600060208284031215611fcc57611fcb611cde565b5b6000611fda84828501611fa1565b91505092915050565b600080600060608486031215611ffc57611ffb611cde565b5b600061200a86828701611f2b565b935050602061201b86828701611f2b565b925050604061202c86828701611e76565b9150509250925092565b600080fd5b600080fd5b7f4e487b7100000000000000000000000000000000000000000000000000000000600052604160045260246000fd5b61207882611de9565b810181811067ffffffffffffffff8211171561209757612096612040565b5b80604052505050565b60006120aa611cd4565b90506120b6828261206f565b919050565b600067ffffffffffffffff8211156120d6576120d5612040565b5b6120df82611de9565b9050602081019050919050565b82818337600083830152505050565b600061210e612109846120bb565b6120a0565b90508281526020810184848401111561212a5761212961203b565b5b6121358482856120ec565b509392505050565b600082601f83011261215257612151612036565b5b81356121628482602086016120fb565b91505092915050565b60006020828403121561218157612180611cde565b5b600082013567ffffffffffffffff81111561219f5761219e611ce3565b5b6121ab8482850161213d565b91505092915050565b6121bd81611e55565b82525050565b60006020820190506121d860008301846121b4565b92915050565b6000602082840312156121f4576121f3611cde565b5b600061220284828501611f2b565b91505092915050565b6000819050919050565b600061223061222b61222684611eb8565b61220b565b611eb8565b9050919050565b600061224282612215565b9050919050565b600061225482612237565b9050919050565b61226481612249565b82525050565b600060208201905061227f600083018461225b565b92915050565b61228e81611d6d565b811461229957600080fd5b50565b6000813590506122ab81612285565b92915050565b600080604083850312156122c8576122c7611cde565b5b60006122d685828601611f2b565b92505060206122e78582860161229c565b9150509250929050565b600067ffffffffffffffff82111561230c5761230b612040565b5b61231582611de9565b9050602081019050919050565b6000612335612330846122f1565b6120a0565b9050828152602081018484840111156123515761235061203b565b5b61235c8482856120ec565b509392505050565b600082601f83011261237957612378612036565b5b8135612389848260208601612322565b91505092915050565b600080600080608085870312156123ac576123ab611cde565b5b60006123ba87828801611f2b565b94505060206123cb87828801611f2b565b93505060406123dc87828801611e76565b925050606085013567ffffffffffffffff8111156123fd576123fc611ce3565b5b61240987828801612364565b91505092959194509250565b6000806040838503121561242c5761242b611cde565b5b600061243a85828601611f2b565b925050602061244b85828601611f2b565b9150509250929050565b7f4e487b7100000000000000000000000000000000000000000000000000000000600052602260045260246000fd5b6000600282049050600182168061249c57607f821691505b6020821081036124af576124ae612455565b5b50919050565b6124be81611f80565b82525050565b60006020820190506124d960008301846124b5565b92915050565b7f4e487b7100000000000000000000000000000000000000000000000000000000600052601160045260246000fd5b600061251982611e55565b915061252483611e55565b925082820190508082111561253c5761253b6124df565b5b92915050565b60006060820190506125576000830186611eea565b61256460208301856121b4565b6125716040830184611eea565b949350505050565b600081905092915050565b600061258f82611da3565b6125998185612579565b93506125a9818560208601611dbf565b80840191505092915050565b60006125c18284612584565b915081905092915050565b60006125d88285612584565b91506125e48284612584565b91508190509392505050565b600069ffffffffffffffffffff82169050919050565b61260f816125f0565b811461261a57600080fd5b50565b60008151905061262c81612606565b92915050565b60008151905061264181611f8a565b92915050565b60008151905061265681611e5f565b92915050565b600080600080600060a0868803121561267857612677611cde565b5b60006126868882890161261d565b955050602061269788828901612632565b94505060406126a888828901612647565b93505060606126b988828901612647565b92505060806126ca8882890161261d565b9150509295509295909350565b7f7b226e616d65223a220000000000000000000000000000000000000000000000600082015250565b600061270d600983612579565b9150612718826126d7565b600982019050919050565b7f222c20226465736372697074696f6e223a22416e204e4654207468617420636860008201527f616e676573206261736564206f6e2074686520436861696e6c696e6b2046656560208201527f64222c2000000000000000000000000000000000000000000000000000000000604082015250565b60006127a5604483612579565b91506127b082612723565b604482019050919050565b7f2261747472696275746573223a205b7b2274726169745f74797065223a20226360008201527f6f6f6c6e657373222c202276616c7565223a203130307d5d2c2022696d61676560208201527f223a220000000000000000000000000000000000000000000000000000000000604082015250565b600061283d604383612579565b9150612848826127bb565b604382019050919050565b7f227d000000000000000000000000000000000000000000000000000000000000600082015250565b6000612889600283612579565b915061289482612853565b600282019050919050565b60006128aa82612700565b91506128b68285612584565b91506128c182612798565b91506128cc82612830565b91506128d88284612584565b91506128e38261287c565b91508190509392505050565b7f4e487b7100000000000000000000000000000000000000000000000000000000600052601260045260246000fd5b600061292982611e55565b915061293483611e55565b925082612944576129436128ef565b5b828204905092915050565b600061295a82611e55565b915061296583611e55565b925082820261297381611e55565b9150828204841483151761298a576129896124df565b5b5092915050565b600081519050919050565b600082825260208201905092915050565b60006129b882612991565b6129c2818561299c565b93506129d2818560208601611dbf565b6129db81611de9565b840191505092915050565b60006080820190506129fb6000830187611eea565b612a086020830186611eea565b612a1560408301856121b4565b8181036060830152612a2781846129ad565b905095945050505050565b600081519050612a4181611d14565b92915050565b600060208284031215612a5d57612a5c611cde565b5b6000612a6b84828501612a32565b91505092915050565b6000604082019050612a896000830185611eea565b612a9660208301846121b4565b939250505056fe4142434445464748494a4b4c4d4e4f505152535455565758595a6162636465666768696a6b6c6d6e6f707172737475767778797a303132333435363738392b2fa264697066735822122090b3ef24f47b0c98a4fd2c1f60ceda0bd0e79aae73f09f3e31b9c5f36ec67d8464736f6c634300081c00334142434445464748494a4b4c4d4e4f505152535455565758595a6162636465666768696a6b6c6d6e6f707172737475767778797a303132333435363738392b2f",
  "linkReferences": {},
  "deployedLinkReferences": {}
}