{
  "_format": "hh-sol-artifact-1",
  "contractName": "RandomIpfsNft",
  "sourceName": "contracts/RandomIpfsNft.sol",
  "abi": [
    {
      "inputs": [
        {
          "internalType": "address",
          "name": "vrfCoordinator",
          "type": "address"
        },
        {
          "internalType": "uint256",
          "name": "subscriptionId",
          "type": "uint256"
        },
        {
          "internalType": "bytes32",
          "name": "gasLane",
          "type": "bytes32"
        },
        {
          "internalType": "uint256",
          "name": "mintFee",
          "type": "uint256"
        },
        {
          "internalType": "uint32",
          "name": "callbackGasLimit",
          "type": "uint32"
        },
        {
          "internalType": "string[3]",
          "name": "dogTokenUris",
          "type": "string[3]"
        }
      ],
      "stateMutability": "nonpayable",
      "type": "constructor"
    },
    {
      "inputs": [],
      "name": "AlreadyInitialized",
      "type": "error"
    },
    {
      "inputs": [
        {
          "internalType": "address",
          "name": "sender",
          "type": "address"
        },
        {
          "internalType": "uint256",
          "name": "tokenId",
          "type": "uint256"
        },
        {
          "internalType": "address",
          "name": "owner",
          "type": "address"
        }
      ],
      "name": "ERC721IncorrectOwner",
      "type": "error"
    },
    {
      "inputs": [
        {
          "internalType": "address",
          "name": "operator",
          "type": "address"
        },
        {
          "internalType": "uint256",
          "name": "tokenId",
          "type": "uint256"
        }
      ],
      "name": "ERC721InsufficientApproval",
      "type": "error"
    },
    {
      "inputs": [
        {
          "internalType": "address",
          "name": "approver",
          "type": "address"
        }
      ],
      "name": "ERC721InvalidApprover",
      "type": "error"
    },
    {
      "inputs": [
        {
          "internalType": "address",
          "name": "operator",
          "type": "address"
        }
      ],
      "name": "ERC721InvalidOperator",
      "type": "error"
    },
    {
      "inputs": [
        {
          "internalType": "address",
          "name": "owner",
          "type": "address"
        }
      ],
      "name": "ERC721InvalidOwner",
      "type": "error"
    },
    {
      "inputs": [
        {
          "internalType": "address",
          "name": "receiver",
          "type": "address"
        }
      ],
      "name": "ERC721InvalidReceiver",
      "type": "error"
    },
    {
      "inputs": [
        {
          "internalType": "address",
          "name": "sender",
          "type": "address"
        }
      ],
      "name": "ERC721InvalidSender",
      "type": "error"
    },
    {
      "inputs": [
        {
          "internalType": "uint256",
          "name": "tokenId",
          "type": "uint256"
        }
      ],
      "name": "ERC721NonexistentToken",
      "type": "error"
    },
    {
      "inputs": [],
      "name": "NeedMoreETHSent",
      "type": "error"
    },
    {
      "inputs": [
        {
          "internalType": "address",
          "name": "have",
          "type": "address"
        },
        {
          "internalType": "address",
          "name": "want",
          "type": "address"
        }
      ],
      "name": "OnlyCoordinatorCanFulfill",
      "type": "error"
    },
    {
      "inputs": [
        {
          "internalType": "address",
          "name": "have",
          "type": "address"
        },
        {
          "internalType": "address",
          "name": "owner",
          "type": "address"
        },
        {
          "internalType": "address",
          "name": "coordinator",
          "type": "address"
        }
      ],
      "name": "OnlyOwnerOrCoordinator",
      "type": "error"
    },
    {
      "inputs": [],
      "name": "RangeOutOfBounds",
      "type": "error"
    },
    {
      "inputs": [],
      "name": "ZeroAddress",
      "type": "error"
    },
    {
      "anonymous": false,
      "inputs": [
        {
          "indexed": true,
          "internalType": "address",
          "name": "owner",
          "type": "address"
        },
        {
          "indexed": true,
          "internalType": "address",
          "name": "approved",
          "type": "address"
        },
        {
          "indexed": true,
          "internalType": "uint256",
          "name": "tokenId",
          "type": "uint256"
        }
      ],
      "name": "Approval",
      "type": "event"
    },
    {
      "anonymous": false,
      "inputs": [
        {
          "indexed": true,
          "internalType": "address",
          "name": "owner",
          "type": "address"
        },
        {
          "indexed": true,
          "internalType": "address",
          "name": "operator",
          "type": "address"
        },
        {
          "indexed": false,
          "internalType": "bool",
          "name": "approved",
          "type": "bool"
        }
      ],
      "name": "ApprovalForAll",
      "type": "event"
    },
    {
      "anonymous": false,
      "inputs": [
        {
          "indexed": false,
          "internalType": "uint256",
          "name": "_fromTokenId",
          "type": "uint256"
        },
        {
          "indexed": false,
          "internalType": "uint256",
          "name": "_toTokenId",
          "type": "uint256"
        }
      ],
      "name": "BatchMetadataUpdate",
      "type": "event"
    },
    {
      "anonymous": false,
      "inputs": [
        {
          "indexed": false,
          "internalType": "address",
          "name": "vrfCoordinator",
          "type": "address"
        }
      ],
      "name": "CoordinatorSet",
      "type": "event"
    },
    {
      "anonymous": false,
      "inputs": [
        {
          "indexed": false,
          "internalType": "uint256",
          "name": "_tokenId",
          "type": "uint256"
        }
      ],
      "name": "MetadataUpdate",
      "type": "event"
    },
    {
      "anonymous": false,
      "inputs": [
        {
          "indexed": false,
          "internalType": "enum RandomIpfsNft.Breed",
          "name": "breed",
          "type": "uint8"
        },
        {
          "indexed": false,
          "internalType": "address",
          "name": "minter",
          "type": "address"
        }
      ],
      "name": "NftMinted",
      "type": "event"
    },
    {
      "anonymous": false,
      "inputs": [
        {
          "indexed": true,
          "internalType": "uint256",
          "name": "requestId",
          "type": "uint256"
        },
        {
          "indexed": false,
          "internalType": "address",
          "name": "requester",
          "type": "address"
        }
      ],
      "name": "NftRequested",
      "type": "event"
    },
    {
      "anonymous": false,
      "inputs": [
        {
          "indexed": true,
          "internalType": "address",
          "name": "from",
          "type": "address"
        },
        {
          "indexed": true,
          "internalType": "address",
          "name": "to",
          "type": "address"
        }
      ],
      "name": "OwnershipTransferRequested",
      "type": "event"
    },
    {
      "anonymous": false,
      "inputs": [
        {
          "indexed": true,
          "internalType": "address",
          "name": "from",
          "type": "address"
        },
        {
          "indexed": true,
          "internalType": "address",
          "name": "to",
          "type": "address"
        }
      ],
      "name": "OwnershipTransferred",
      "type": "event"
    },
    {
      "anonymous": false,
      "inputs": [
        {
          "indexed": true,
          "internalType": "address",
          "name": "from",
          "type": "address"
        },
        {
          "indexed": true,
          "internalType": "address",
          "name": "to",
          "type": "address"
        },
        {
          "indexed": true,
          "internalType": "uint256",
          "name": "tokenId",
          "type": "uint256"
        }
      ],
      "name": "Transfer",
      "type": "event"
    },
    {
      "inputs": [],
      "name": "acceptOwnership",
      "outputs": [],
      "stateMutability": "nonpayable",
      "type": "function"
    },
    {
      "inputs": [
        {
          "internalType": "address",
          "name": "to",
          "type": "address"
        },
        {
          "internalType": "uint256",
          "name": "tokenId",
          "type": "uint256"
        }
      ],
      "name": "approve",
      "outputs": [],
      "stateMutability": "nonpayable",
      "type": "function"
    },
    {
      "inputs": [
        {
          "internalType": "address",
          "name": "owner",
          "type": "address"
        }
      ],
      "name": "balanceOf",
      "outputs": [
        {
          "internalType": "uint256",
          "name": "",
          "type": "uint256"
        }
      ],
      "stateMutability": "view",
      "type": "function"
    },
    {
      "inputs": [
        {
          "internalType": "uint256",
          "name": "tokenId",
          "type": "uint256"
        }
      ],
      "name": "getApproved",
      "outputs": [
        {
          "internalType": "address",
          "name": "",
          "type": "address"
        }
      ],
      "stateMutability": "view",
      "type": "function"
    },
    {
      "inputs": [
        {
          "internalType": "uint256",
          "name": "moddedRng",
          "type": "uint256"
        }
      ],
      "name": "getBreedFromModdedRng",
      "outputs": [
        {
          "internalType": "enum RandomIpfsNft.Breed",
          "name": "",
          "type": "uint8"
        }
      ],
      "stateMutability": "pure",
      "type": "function"
    },
    {
      "inputs": [],
      "name": "getChanceArray",
      "outputs": [
        {
          "internalType": "uint256[3]",
          "name": "",
          "type": "uint256[3]"
        }
      ],
      "stateMutability": "pure",
      "type": "function"
    },
    {
      "inputs": [
        {
          "internalType": "uint256",
          "name": "index",
          "type": "uint256"
        }
      ],
      "name": "getDogTokenUris",
      "outputs": [
        {
          "internalType": "string",
          "name": "",
          "type": "string"
        }
      ],
      "stateMutability": "view",
      "type": "function"
    },
    {
      "inputs": [],
      "name": "getInitialized",
      "outputs": [
        {
          "internalType": "bool",
          "name": "",
          "type": "bool"
        }
      ],
      "stateMutability": "view",
      "type": "function"
    },
    {
      "inputs": [],
      "name": "getMintFee",
      "outputs": [
        {
          "internalType": "uint256",
          "name": "",
          "type": "uint256"
        }
      ],
      "stateMutability": "view",
      "type": "function"
    },
    {
      "inputs": [],
      "name": "getSubscriptionId",
      "outputs": [
        {
          "internalType": "uint256",
          "name": "",
          "type": "uint256"
        }
      ],
      "stateMutability": "view",
      "type": "function"
    },
    {
      "inputs": [],
      "name": "getTokenCounter",
      "outputs": [
        {
          "internalType": "uint256",
          "name": "",
          "type": "uint256"
        }
      ],
      "stateMutability": "view",
      "type": "function"
    },
    {
      "inputs": [
        {
          "internalType": "address",
          "name": "owner",
          "type": "address"
        },
        {
          "internalType": "address",
          "name": "operator",
          "type": "address"
        }
      ],
      "name": "isApprovedForAll",
      "outputs": [
        {
          "internalType": "bool",
          "name": "",
          "type": "bool"
        }
      ],
      "stateMutability": "view",
      "type": "function"
    },
    {
      "inputs": [],
      "name": "name",
      "outputs": [
        {
          "internalType": "string",
          "name": "",
          "type": "string"
        }
      ],
      "stateMutability": "view",
      "type": "function"
    },
    {
      "inputs": [],
      "name": "owner",
      "outputs": [
        {
          "internalType": "address",
          "name": "",
          "type": "address"
        }
      ],
      "stateMutability": "view",
      "type": "function"
    },
    {
      "inputs": [
        {
          "internalType": "uint256",
          "name": "tokenId",
          "type": "uint256"
        }
      ],
      "name": "ownerOf",
      "outputs": [
        {
          "internalType": "address",
          "name": "",
          "type": "address"
        }
      ],
      "stateMutability": "view",
      "type": "function"
    },
    {
      "inputs": [
        {
          "internalType": "uint256",
          "name": "requestId",
          "type": "uint256"
        },
        {
          "internalType": "uint256[]",
          "name": "randomWords",
          "type": "uint256[]"
        }
      ],
      "name": "rawFulfillRandomWords",
      "outputs": [],
      "stateMutability": "nonpayable",
      "type": "function"
    },
    {
      "inputs": [],
      "name": "requestNft",
      "outputs": [
        {
          "internalType": "uint256",
          "name": "requestId",
          "type": "uint256"
        }
      ],
      "stateMutability": "payable",
      "type": "function"
    },
    {
      "inputs": [],
      "name": "s_vrfCoordinator",
      "outputs": [
        {
          "internalType": "contract IVRFCoordinatorV2Plus",
          "name": "",
          "type": "address"
        }
      ],
      "stateMutability": "view",
      "type": "function"
    },
    {
      "inputs": [
        {
          "internalType": "address",
          "name": "from",
          "type": "address"
        },
        {
          "internalType": "address",
          "name": "to",
          "type": "address"
        },
        {
          "internalType": "uint256",
          "name": "tokenId",
          "type": "uint256"
        }
      ],
      "name": "safeTransferFrom",
      "outputs": [],
      "stateMutability": "nonpayable",
      "type": "function"
    },
    {
      "inputs": [
        {
          "internalType": "address",
          "name": "from",
          "type": "address"
        },
        {
          "internalType": "address",
          "name": "to",
          "type": "address"
        },
        {
          "internalType": "uint256",
          "name": "tokenId",
          "type": "uint256"
        },
        {
          "internalType": "bytes",
          "name": "data",
          "type": "bytes"
        }
      ],
      "name": "safeTransferFrom",
      "outputs": [],
      "stateMutability": "nonpayable",
      "type": "function"
    },
    {
      "inputs": [
        {
          "internalType": "address",
          "name": "operator",
          "type": "address"
        },
        {
          "internalType": "bool",
          "name": "approved",
          "type": "bool"
        }
      ],
      "name": "setApprovalForAll",
      "outputs": [],
      "stateMutability": "nonpayable",
      "type": "function"
    },
    {
      "inputs": [
        {
          "internalType": "address",
          "name": "_vrfCoordinator",
          "type": "address"
        }
      ],
      "name": "setCoordinator",
      "outputs": [],
      "stateMutability": "nonpayable",
      "type": "function"
    },
    {
      "inputs": [
        {
          "internalType": "bytes4",
          "name": "interfaceId",
          "type": "bytes4"
        }
      ],
      "name": "supportsInterface",
      "outputs": [
        {
          "internalType": "bool",
          "name": "",
          "type": "bool"
        }
      ],
      "stateMutability": "view",
      "type": "function"
    },
    {
      "inputs": [],
      "name": "symbol",
      "outputs": [
        {
          "internalType": "string",
          "name": "",
          "type": "string"
        }
      ],
      "stateMutability": "view",
      "type": "function"
    },
    {
      "inputs": [
        {
          "internalType": "uint256",
          "name": "tokenId",
          "type": "uint256"
        }
      ],
      "name": "tokenURI",
      "outputs": [
        {
          "internalType": "string",
          "name": "",
          "type": "string"
        }
      ],
      "stateMutability": "view",
      "type": "function"
    },
    {
      "inputs": [
        {
          "internalType": "address",
          "name": "from",
          "type": "address"
        },
        {
          "internalType": "address",
          "name": "to",
          "type": "address"
        },
        {
          "internalType": "uint256",
          "name": "tokenId",
          "type": "uint256"
        }
      ],
      "name": "transferFrom",
      "outputs": [],
      "stateMutability": "nonpayable",
      "type": "function"
    },
    {
      "inputs": [
        {
          "internalType": "address",
          "name": "to",
          "type": "address"
        }
      ],
      "name": "transferOwnership",
      "outputs": [],
      "stateMutability": "nonpayable",
      "type": "function"
    },
    {
      "inputs": [],
      "name": "withdraw",
      "outputs": [],
      "stateMutability": "nonpayable",
      "type": "function"
    }
  ],
  "bytecode": "0x60e060405234801561001057600080fd5b5060405161489f38038061489f83398181016040528101906100329190610877565b85338060006040518060400160405280600f81526020017f52616e646f6d2049504653204e465400000000000000000000000000000000008152506040518060400160405280600381526020017f52494e000000000000000000000000000000000000000000000000000000000081525081600090816100b29190610b37565b5080600190816100c29190610b37565b505050600073ffffffffffffffffffffffffffffffffffffffff168273ffffffffffffffffffffffffffffffffffffffff1603610134576040517f08c379a000000000000000000000000000000000000000000000000000000000815260040161012b90610c66565b60405180910390fd5b81600760006101000a81548173ffffffffffffffffffffffffffffffffffffffff021916908373ffffffffffffffffffffffffffffffffffffffff160217905550600073ffffffffffffffffffffffffffffffffffffffff168173ffffffffffffffffffffffffffffffffffffffff16146101b9576101b8816102a960201b60201c565b5b505050600073ffffffffffffffffffffffffffffffffffffffff168173ffffffffffffffffffffffffffffffffffffffff1603610222576040517fd92e233d00000000000000000000000000000000000000000000000000000000815260040160405180910390fd5b80600960006101000a81548173ffffffffffffffffffffffffffffffffffffffff021916908373ffffffffffffffffffffffffffffffffffffffff160217905550508360a08181525050846080818152505082600a819055508163ffffffff1660c08163ffffffff168152505061029e816103d760201b60201c565b505050505050610cf2565b3373ffffffffffffffffffffffffffffffffffffffff168173ffffffffffffffffffffffffffffffffffffffff1603610317576040517f08c379a000000000000000000000000000000000000000000000000000000000815260040161030e90610cd2565b60405180910390fd5b80600860006101000a81548173ffffffffffffffffffffffffffffffffffffffff021916908373ffffffffffffffffffffffffffffffffffffffff1602179055508073ffffffffffffffffffffffffffffffffffffffff16600760009054906101000a900473ffffffffffffffffffffffffffffffffffffffff1673ffffffffffffffffffffffffffffffffffffffff167fed8889f560326eb138920d842192f0eb3dd22b4f139c87a2c57538e05bae127860405160405180910390a350565b600e60009054906101000a900460ff161561041e576040517f0dc149f000000000000000000000000000000000000000000000000000000000815260040160405180910390fd5b80600d90600361042f92919061044e565b506001600e60006101000a81548160ff02191690831515021790555050565b828054828255906000526020600020908101928215610496579160200282015b828111156104955782518290816104859190610b37565b509160200191906001019061046e565b5b5090506104a391906104a7565b5090565b5b808211156104c757600081816104be91906104cb565b506001016104a8565b5090565b5080546104d79061095a565b6000825580601f106104e95750610508565b601f016020900490600052602060002090810190610507919061050b565b5b50565b5b8082111561052457600081600090555060010161050c565b5090565b6000604051905090565b600080fd5b600080fd5b600073ffffffffffffffffffffffffffffffffffffffff82169050919050565b60006105678261053c565b9050919050565b6105778161055c565b811461058257600080fd5b50565b6000815190506105948161056e565b92915050565b6000819050919050565b6105ad8161059a565b81146105b857600080fd5b50565b6000815190506105ca816105a4565b92915050565b6000819050919050565b6105e3816105d0565b81146105ee57600080fd5b50565b600081519050610600816105da565b92915050565b600063ffffffff82169050919050565b61061f81610606565b811461062a57600080fd5b50565b60008151905061063c81610616565b92915050565b600080fd5b6000601f19601f8301169050919050565b7f4e487b7100000000000000000000000000000000000000000000000000000000600052604160045260246000fd5b61069082610647565b810181811067ffffffffffffffff821117156106af576106ae610658565b5b80604052505050565b60006106c2610528565b90506106ce8282610687565b919050565b600067ffffffffffffffff8211156106ee576106ed610658565b5b602082029050919050565b600080fd5b600080fd5b600067ffffffffffffffff82111561071e5761071d610658565b5b61072782610647565b9050602081019050919050565b60005b83811015610752578082015181840152602081019050610737565b60008484015250505050565b600061077161076c84610703565b6106b8565b90508281526020810184848401111561078d5761078c6106fe565b5b610798848285610734565b509392505050565b600082601f8301126107b5576107b4610642565b5b81516107c584826020860161075e565b91505092915050565b60006107e16107dc846106d3565b6106b8565b905080602084028301858111156107fb576107fa6106f9565b5b835b8181101561084257805167ffffffffffffffff8111156108205761081f610642565b5b80860161082d89826107a0565b855260208501945050506020810190506107fd565b5050509392505050565b600082601f83011261086157610860610642565b5b600361086e8482856107ce565b91505092915050565b60008060008060008060c0878903121561089457610893610532565b5b60006108a289828a01610585565b96505060206108b389828a016105bb565b95505060406108c489828a016105f1565b94505060606108d589828a016105bb565b93505060806108e689828a0161062d565b92505060a087015167ffffffffffffffff81111561090757610906610537565b5b61091389828a0161084c565b9150509295509295509295565b600081519050919050565b7f4e487b7100000000000000000000000000000000000000000000000000000000600052602260045260246000fd5b6000600282049050600182168061097257607f821691505b6020821081036109855761098461092b565b5b50919050565b60008190508160005260206000209050919050565b60006020601f8301049050919050565b600082821b905092915050565b6000600883026109ed7fffffffffffffffffffffffffffffffffffffffffffffffffffffffffffffffff826109b0565b6109f786836109b0565b95508019841693508086168417925050509392505050565b6000819050919050565b6000610a34610a2f610a2a8461059a565b610a0f565b61059a565b9050919050565b6000819050919050565b610a4e83610a19565b610a62610a5a82610a3b565b8484546109bd565b825550505050565b600090565b610a77610a6a565b610a82818484610a45565b505050565b5b81811015610aa657610a9b600082610a6f565b600181019050610a88565b5050565b601f821115610aeb57610abc8161098b565b610ac5846109a0565b81016020851015610ad4578190505b610ae8610ae0856109a0565b830182610a87565b50505b505050565b600082821c905092915050565b6000610b0e60001984600802610af0565b1980831691505092915050565b6000610b278383610afd565b9150826002028217905092915050565b610b4082610920565b67ffffffffffffffff811115610b5957610b58610658565b5b610b63825461095a565b610b6e828285610aaa565b600060209050601f831160018114610ba15760008415610b8f578287015190505b610b998582610b1b565b865550610c01565b601f198416610baf8661098b565b60005b82811015610bd757848901518255600182019150602085019450602081019050610bb2565b86831015610bf45784890151610bf0601f891682610afd565b8355505b6001600288020188555050505b505050505050565b600082825260208201905092915050565b7f43616e6e6f7420736574206f776e657220746f207a65726f0000000000000000600082015250565b6000610c50601883610c09565b9150610c5b82610c1a565b602082019050919050565b60006020820190508181036000830152610c7f81610c43565b9050919050565b7f43616e6e6f74207472616e7366657220746f2073656c66000000000000000000600082015250565b6000610cbc601783610c09565b9150610cc782610c86565b602082019050919050565b60006020820190508181036000830152610ceb81610caf565b9050919050565b60805160a05160c051613b77610d2860003960006112a20152600061124b01526000818161127101526115200152613b776000f3fe6080604052600436106101b75760003560e01c80637a5caab3116100ec578063aa1524911161008a578063de3d9fb711610064578063de3d9fb7146105ff578063e985e9c51461062a578063ee89dab414610667578063f2fde38b14610692576101b7565b8063aa1524911461057b578063b88d4fde14610599578063c87b56dd146105c2576101b7565b806395d89b41116100c657806395d89b41146104bf5780639eccacf6146104ea578063a22cb46514610515578063a51cccf31461053e576101b7565b80637a5caab3146104405780638da5cb5b1461046b5780638ea9811714610496576101b7565b80633ccfd60b116101595780636352211e116101335780636352211e146103845780636e02007d146103c157806370a08231146103ec57806379ba509714610429576101b7565b80633ccfd60b1461031957806342842e0e146103305780635dacf5f414610359576101b7565b8063095ea7b311610195578063095ea7b3146102615780631fe543e31461028a57806323b872dd146102b35780633af25975146102dc576101b7565b806301ffc9a7146101bc57806306fdde03146101f9578063081812fc14610224575b600080fd5b3480156101c857600080fd5b506101e360048036038101906101de91906129a7565b6106bb565b6040516101f091906129ef565b60405180910390f35b34801561020557600080fd5b5061020e61071c565b60405161021b9190612a9a565b60405180910390f35b34801561023057600080fd5b5061024b60048036038101906102469190612af2565b6107ae565b6040516102589190612b60565b60405180910390f35b34801561026d57600080fd5b5061028860048036038101906102839190612ba7565b6107ca565b005b34801561029657600080fd5b506102b160048036038101906102ac9190612c4c565b6107e0565b005b3480156102bf57600080fd5b506102da60048036038101906102d59190612cac565b6108a6565b005b3480156102e857600080fd5b5061030360048036038101906102fe9190612af2565b6109a8565b6040516103109190612a9a565b60405180910390f35b34801561032557600080fd5b5061032e610a58565b005b34801561033c57600080fd5b5061035760048036038101906103529190612cac565b610b15565b005b34801561036557600080fd5b5061036e610b35565b60405161037b9190612daa565b60405180910390f35b34801561039057600080fd5b506103ab60048036038101906103a69190612af2565b610b60565b6040516103b89190612b60565b60405180910390f35b3480156103cd57600080fd5b506103d6610b72565b6040516103e39190612dd4565b60405180910390f35b3480156103f857600080fd5b50610413600480360381019061040e9190612def565b610b7c565b6040516104209190612dd4565b60405180910390f35b34801561043557600080fd5b5061043e610c36565b005b34801561044c57600080fd5b50610455610dcd565b6040516104629190612dd4565b60405180910390f35b34801561047757600080fd5b50610480610dd7565b60405161048d9190612b60565b60405180910390f35b3480156104a257600080fd5b506104bd60048036038101906104b89190612def565b610e01565b005b3480156104cb57600080fd5b506104d4610fe2565b6040516104e19190612a9a565b60405180910390f35b3480156104f657600080fd5b506104ff611074565b60405161050c9190612e7b565b60405180910390f35b34801561052157600080fd5b5061053c60048036038101906105379190612ec2565b61109a565b005b34801561054a57600080fd5b5061056560048036038101906105609190612af2565b6110b0565b6040516105729190612f79565b60405180910390f35b6105836111c2565b6040516105909190612dd4565b60405180910390f35b3480156105a557600080fd5b506105c060048036038101906105bb91906130c4565b6113e4565b005b3480156105ce57600080fd5b506105e960048036038101906105e49190612af2565b611409565b6040516105f69190612a9a565b60405180910390f35b34801561060b57600080fd5b5061061461151c565b6040516106219190612dd4565b60405180910390f35b34801561063657600080fd5b50610651600480360381019061064c9190613147565b611544565b60405161065e91906129ef565b60405180910390f35b34801561067357600080fd5b5061067c6115d8565b60405161068991906129ef565b60405180910390f35b34801561069e57600080fd5b506106b960048036038101906106b49190612def565b6115ef565b005b6000634906490660e01b7bffffffffffffffffffffffffffffffffffffffffffffffffffffffff1916827bffffffffffffffffffffffffffffffffffffffffffffffffffffffff19161480610715575061071482611603565b5b9050919050565b60606000805461072b906131b6565b80601f0160208091040260200160405190810160405280929190818152602001828054610757906131b6565b80156107a45780601f10610779576101008083540402835291602001916107a4565b820191906000526020600020905b81548152906001019060200180831161078757829003601f168201915b5050505050905090565b60006107b9826116e5565b506107c38261176d565b9050919050565b6107dc82826107d76117aa565b6117b2565b5050565b600960009054906101000a900473ffffffffffffffffffffffffffffffffffffffff1673ffffffffffffffffffffffffffffffffffffffff163373ffffffffffffffffffffffffffffffffffffffff16146108965733600960009054906101000a900473ffffffffffffffffffffffffffffffffffffffff166040517f1cf993f400000000000000000000000000000000000000000000000000000000815260040161088d9291906131e7565b60405180910390fd5b6108a18383836117c4565b505050565b600073ffffffffffffffffffffffffffffffffffffffff168273ffffffffffffffffffffffffffffffffffffffff16036109185760006040517f64a0ae9200000000000000000000000000000000000000000000000000000000815260040161090f9190612b60565b60405180910390fd5b600061092c83836109276117aa565b61195e565b90508373ffffffffffffffffffffffffffffffffffffffff168173ffffffffffffffffffffffffffffffffffffffff16146109a2578382826040517f64283d7b00000000000000000000000000000000000000000000000000000000815260040161099993929190613210565b60405180910390fd5b50505050565b6060600d82815481106109be576109bd613247565b5b9060005260206000200180546109d3906131b6565b80601f01602080910402602001604051908101604052809291908181526020018280546109ff906131b6565b8015610a4c5780601f10610a2157610100808354040283529160200191610a4c565b820191906000526020600020905b815481529060010190602001808311610a2f57829003601f168201915b50505050509050919050565b610a60611b78565b600047905060003373ffffffffffffffffffffffffffffffffffffffff1682604051610a8b906132a7565b60006040518083038185875af1925050503d8060008114610ac8576040519150601f19603f3d011682016040523d82523d6000602084013e610acd565b606091505b5050905080610b11576040517f08c379a0000000000000000000000000000000000000000000000000000000008152600401610b0890613308565b60405180910390fd5b5050565b610b30838383604051806020016040528060008152506113e4565b505050565b610b3d612919565b6040518060600160405280600a8152602001601e81526020016064815250905090565b6000610b6b826116e5565b9050919050565b6000600b54905090565b60008073ffffffffffffffffffffffffffffffffffffffff168273ffffffffffffffffffffffffffffffffffffffff1603610bef5760006040517f89c62b64000000000000000000000000000000000000000000000000000000008152600401610be69190612b60565b60405180910390fd5b600360008373ffffffffffffffffffffffffffffffffffffffff1673ffffffffffffffffffffffffffffffffffffffff168152602001908152602001600020549050919050565b600860009054906101000a900473ffffffffffffffffffffffffffffffffffffffff1673ffffffffffffffffffffffffffffffffffffffff163373ffffffffffffffffffffffffffffffffffffffff1614610cc6576040517f08c379a0000000000000000000000000000000000000000000000000000000008152600401610cbd90613374565b60405180910390fd5b6000600760009054906101000a900473ffffffffffffffffffffffffffffffffffffffff16905033600760006101000a81548173ffffffffffffffffffffffffffffffffffffffff021916908373ffffffffffffffffffffffffffffffffffffffff1602179055506000600860006101000a81548173ffffffffffffffffffffffffffffffffffffffff021916908373ffffffffffffffffffffffffffffffffffffffff1602179055503373ffffffffffffffffffffffffffffffffffffffff168173ffffffffffffffffffffffffffffffffffffffff167f8be0079c531659141344cd1fd0a4f28419497f9722a3daafe3b4186f6b6457e060405160405180910390a350565b6000600a54905090565b6000600760009054906101000a900473ffffffffffffffffffffffffffffffffffffffff16905090565b610e09610dd7565b73ffffffffffffffffffffffffffffffffffffffff163373ffffffffffffffffffffffffffffffffffffffff1614158015610e925750600960009054906101000a900473ffffffffffffffffffffffffffffffffffffffff1673ffffffffffffffffffffffffffffffffffffffff163373ffffffffffffffffffffffffffffffffffffffff1614155b15610f015733610ea0610dd7565b600960009054906101000a900473ffffffffffffffffffffffffffffffffffffffff166040517f061db9c1000000000000000000000000000000000000000000000000000000008152600401610ef893929190613394565b60405180910390fd5b600073ffffffffffffffffffffffffffffffffffffffff168173ffffffffffffffffffffffffffffffffffffffff1603610f67576040517fd92e233d00000000000000000000000000000000000000000000000000000000815260040160405180910390fd5b80600960006101000a81548173ffffffffffffffffffffffffffffffffffffffff021916908373ffffffffffffffffffffffffffffffffffffffff1602179055507fd1a6a14209a385a964d036e404cb5cfb71f4000cdb03c9366292430787261be681604051610fd79190612b60565b60405180910390a150565b606060018054610ff1906131b6565b80601f016020809104026020016040519081016040528092919081815260200182805461101d906131b6565b801561106a5780601f1061103f5761010080835404028352916020019161106a565b820191906000526020600020905b81548152906001019060200180831161104d57829003601f168201915b5050505050905090565b600960009054906101000a900473ffffffffffffffffffffffffffffffffffffffff1681565b6110ac6110a56117aa565b8383611c0a565b5050565b6000606482106110ec576040517f0655dc2500000000000000000000000000000000000000000000000000000000815260040160405180910390fd5b6000806110f7610b35565b905060005b600381101561118a57828510158015611136575081816003811061112357611122613247565b5b60200201518361113391906133fa565b85105b156111585780600281111561114e5761114d612f02565b5b93505050506111bd565b81816003811061116b5761116a613247565b5b60200201518361117b91906133fa565b925080806001019150506110fc565b506040517f0655dc2500000000000000000000000000000000000000000000000000000000815260040160405180910390fd5b919050565b6000600a54341015611200576040517f2e53d2d300000000000000000000000000000000000000000000000000000000815260040160405180910390fd5b600960009054906101000a900473ffffffffffffffffffffffffffffffffffffffff1673ffffffffffffffffffffffffffffffffffffffff16639b1c385e6040518060c001604052807f000000000000000000000000000000000000000000000000000000000000000081526020017f00000000000000000000000000000000000000000000000000000000000000008152602001600361ffff1681526020017f000000000000000000000000000000000000000000000000000000000000000063ffffffff168152602001600163ffffffff1681526020016112f3604051806020016040528060001515815250611d79565b8152506040518263ffffffff1660e01b81526004016113129190613561565b6020604051808303816000875af1158015611331573d6000803e3d6000fd5b505050506040513d601f19601f820116820180604052508101906113559190613598565b905033600f600083815260200190815260200160002060006101000a81548173ffffffffffffffffffffffffffffffffffffffff021916908373ffffffffffffffffffffffffffffffffffffffff160217905550807ff873236e6cc0ecc5be1a9a35c95ee5b8d1ac4cc7bfef0cc5060391d6cc98e26b336040516113d99190612b60565b60405180910390a290565b6113ef8484846108a6565b6114036113fa6117aa565b85858585611e11565b50505050565b6060611414826116e5565b506000600660008481526020019081526020016000208054611435906131b6565b80601f0160208091040260200160405190810160405280929190818152602001828054611461906131b6565b80156114ae5780601f10611483576101008083540402835291602001916114ae565b820191906000526020600020905b81548152906001019060200180831161149157829003601f168201915b5050505050905060006114bf611fc2565b905060008151036114d4578192505050611517565b6000825111156115095780826040516020016114f1929190613601565b60405160208183030381529060405292505050611517565b61151284611fd9565b925050505b919050565b60007f0000000000000000000000000000000000000000000000000000000000000000905090565b6000600560008473ffffffffffffffffffffffffffffffffffffffff1673ffffffffffffffffffffffffffffffffffffffff16815260200190815260200160002060008373ffffffffffffffffffffffffffffffffffffffff1673ffffffffffffffffffffffffffffffffffffffff16815260200190815260200160002060009054906101000a900460ff16905092915050565b6000600e60009054906101000a900460ff16905090565b6115f7611b78565b61160081612042565b50565b60007f80ac58cd000000000000000000000000000000000000000000000000000000007bffffffffffffffffffffffffffffffffffffffffffffffffffffffff1916827bffffffffffffffffffffffffffffffffffffffffffffffffffffffff191614806116ce57507f5b5e139f000000000000000000000000000000000000000000000000000000007bffffffffffffffffffffffffffffffffffffffffffffffffffffffff1916827bffffffffffffffffffffffffffffffffffffffffffffffffffffffff1916145b806116de57506116dd82612170565b5b9050919050565b6000806116f1836121da565b9050600073ffffffffffffffffffffffffffffffffffffffff168173ffffffffffffffffffffffffffffffffffffffff160361176457826040517f7e27328900000000000000000000000000000000000000000000000000000000815260040161175b9190612dd4565b60405180910390fd5b80915050919050565b60006004600083815260200190815260200160002060009054906101000a900473ffffffffffffffffffffffffffffffffffffffff169050919050565b600033905090565b6117bf8383836001612217565b505050565b6000600f600085815260200190815260200160002060009054906101000a900473ffffffffffffffffffffffffffffffffffffffff1690506000600b5490506001600b5461181291906133fa565b600b8190555060006064858560008181106118305761182f613247565b5b905060200201356118419190613654565b9050600061184e826110b0565b905061185a84846123dc565b61191c83600d83600281111561187357611872612f02565b5b8154811061188457611883613247565b5b906000526020600020018054611899906131b6565b80601f01602080910402602001604051908101604052809291908181526020018280546118c5906131b6565b80156119125780601f106118e757610100808354040283529160200191611912565b820191906000526020600020905b8154815290600101906020018083116118f557829003601f168201915b50505050506123fa565b7f8a269f26b688e110e9cbd887d163dab35cae678fa353a0292de532c0cac1ecdc818560405161194d929190613685565b60405180910390a150505050505050565b60008061196a846121da565b9050600073ffffffffffffffffffffffffffffffffffffffff168373ffffffffffffffffffffffffffffffffffffffff16146119ac576119ab818486612456565b5b600073ffffffffffffffffffffffffffffffffffffffff168173ffffffffffffffffffffffffffffffffffffffff1614611a3d576119ee600085600080612217565b6001600360008373ffffffffffffffffffffffffffffffffffffffff1673ffffffffffffffffffffffffffffffffffffffff168152602001908152602001600020600082825403925050819055505b600073ffffffffffffffffffffffffffffffffffffffff168573ffffffffffffffffffffffffffffffffffffffff1614611ac0576001600360008773ffffffffffffffffffffffffffffffffffffffff1673ffffffffffffffffffffffffffffffffffffffff168152602001908152602001600020600082825401925050819055505b846002600086815260200190815260200160002060006101000a81548173ffffffffffffffffffffffffffffffffffffffff021916908373ffffffffffffffffffffffffffffffffffffffff160217905550838573ffffffffffffffffffffffffffffffffffffffff168273ffffffffffffffffffffffffffffffffffffffff167fddf252ad1be2c89b69c2b068fc378daa952ba7f163c4a11628f55a4df523b3ef60405160405180910390a4809150509392505050565b600760009054906101000a900473ffffffffffffffffffffffffffffffffffffffff1673ffffffffffffffffffffffffffffffffffffffff163373ffffffffffffffffffffffffffffffffffffffff1614611c08576040517f08c379a0000000000000000000000000000000000000000000000000000000008152600401611bff906136fa565b60405180910390fd5b565b600073ffffffffffffffffffffffffffffffffffffffff168273ffffffffffffffffffffffffffffffffffffffff1603611c7b57816040517f5b08ba18000000000000000000000000000000000000000000000000000000008152600401611c729190612b60565b60405180910390fd5b80600560008573ffffffffffffffffffffffffffffffffffffffff1673ffffffffffffffffffffffffffffffffffffffff16815260200190815260200160002060008473ffffffffffffffffffffffffffffffffffffffff1673ffffffffffffffffffffffffffffffffffffffff16815260200190815260200160002060006101000a81548160ff0219169083151502179055508173ffffffffffffffffffffffffffffffffffffffff168373ffffffffffffffffffffffffffffffffffffffff167f17307eab39ab6107e8899845ad3d59bd9653f200f220920489ca2b5937696c3183604051611d6c91906129ef565b60405180910390a3505050565b60607f92fd13387c7fe7befbc38d303d6468778fb9731bc4583f17d92989c6fcfdeaaa82604051602401611dad9190613745565b604051602081830303815290604052907bffffffffffffffffffffffffffffffffffffffffffffffffffffffff19166020820180517bffffffffffffffffffffffffffffffffffffffffffffffffffffffff83818316178352505050509050919050565b60008373ffffffffffffffffffffffffffffffffffffffff163b1115611fbb578273ffffffffffffffffffffffffffffffffffffffff1663150b7a02868685856040518563ffffffff1660e01b8152600401611e7094939291906137aa565b6020604051808303816000875af1925050508015611eac57506040513d601f19601f82011682018060405250810190611ea9919061380b565b60015b611f30573d8060008114611edc576040519150601f19603f3d011682016040523d82523d6000602084013e611ee1565b606091505b506000815103611f2857836040517f64a0ae92000000000000000000000000000000000000000000000000000000008152600401611f1f9190612b60565b60405180910390fd5b805160208201fd5b63150b7a0260e01b7bffffffffffffffffffffffffffffffffffffffffffffffffffffffff1916817bffffffffffffffffffffffffffffffffffffffffffffffffffffffff191614611fb957836040517f64a0ae92000000000000000000000000000000000000000000000000000000008152600401611fb09190612b60565b60405180910390fd5b505b5050505050565b606060405180602001604052806000815250905090565b6060611fe4826116e5565b506000611fef611fc2565b9050600081511161200f576040518060200160405280600081525061203a565b806120198461251a565b60405160200161202a929190613601565b6040516020818303038152906040525b915050919050565b3373ffffffffffffffffffffffffffffffffffffffff168173ffffffffffffffffffffffffffffffffffffffff16036120b0576040517f08c379a00000000000000000000000000000000000000000000000000000000081526004016120a790613884565b60405180910390fd5b80600860006101000a81548173ffffffffffffffffffffffffffffffffffffffff021916908373ffffffffffffffffffffffffffffffffffffffff1602179055508073ffffffffffffffffffffffffffffffffffffffff16600760009054906101000a900473ffffffffffffffffffffffffffffffffffffffff1673ffffffffffffffffffffffffffffffffffffffff167fed8889f560326eb138920d842192f0eb3dd22b4f139c87a2c57538e05bae127860405160405180910390a350565b60007f01ffc9a7000000000000000000000000000000000000000000000000000000007bffffffffffffffffffffffffffffffffffffffffffffffffffffffff1916827bffffffffffffffffffffffffffffffffffffffffffffffffffffffff1916149050919050565b60006002600083815260200190815260200160002060009054906101000a900473ffffffffffffffffffffffffffffffffffffffff169050919050565b80806122505750600073ffffffffffffffffffffffffffffffffffffffff168273ffffffffffffffffffffffffffffffffffffffff1614155b15612384576000612260846116e5565b9050600073ffffffffffffffffffffffffffffffffffffffff168373ffffffffffffffffffffffffffffffffffffffff16141580156122cb57508273ffffffffffffffffffffffffffffffffffffffff168173ffffffffffffffffffffffffffffffffffffffff1614155b80156122de57506122dc8184611544565b155b1561232057826040517fa9fbf51f0000000000000000000000000000000000000000000000000000000081526004016123179190612b60565b60405180910390fd5b811561238257838573ffffffffffffffffffffffffffffffffffffffff168273ffffffffffffffffffffffffffffffffffffffff167f8c5be1e5ebec7d5bd14f71427d1e84f3dd0314c0f7b2291e5b200ac8c7c3b92560405160405180910390a45b505b836004600085815260200190815260200160002060006101000a81548173ffffffffffffffffffffffffffffffffffffffff021916908373ffffffffffffffffffffffffffffffffffffffff16021790555050505050565b6123f68282604051806020016040528060008152506125e8565b5050565b8060066000848152602001908152602001600020908161241a9190613a46565b507ff8e1a15aba9398e019f0b49df1a4fde98ee17ae345cb5f6b5e2c27f5033e8ce78260405161244a9190612dd4565b60405180910390a15050565b61246183838361260c565b61251557600073ffffffffffffffffffffffffffffffffffffffff168373ffffffffffffffffffffffffffffffffffffffff16036124d657806040517f7e2732890000000000000000000000000000000000000000000000000000000081526004016124cd9190612dd4565b60405180910390fd5b81816040517f177e802f00000000000000000000000000000000000000000000000000000000815260040161250c929190613b18565b60405180910390fd5b505050565b606060006001612529846126cd565b01905060008167ffffffffffffffff81111561254857612547612f99565b5b6040519080825280601f01601f19166020018201604052801561257a5781602001600182028036833780820191505090505b509050600082602083010190505b6001156125dd578080600190039150507f3031323334353637383961626364656600000000000000000000000000000000600a86061a8153600a85816125d1576125d0613625565b5b04945060008503612588575b819350505050919050565b6125f28383612820565b6126076125fd6117aa565b6000858585611e11565b505050565b60008073ffffffffffffffffffffffffffffffffffffffff168373ffffffffffffffffffffffffffffffffffffffff16141580156126c457508273ffffffffffffffffffffffffffffffffffffffff168473ffffffffffffffffffffffffffffffffffffffff16148061268557506126848484611544565b5b806126c357508273ffffffffffffffffffffffffffffffffffffffff166126ab8361176d565b73ffffffffffffffffffffffffffffffffffffffff16145b5b90509392505050565b600080600090507a184f03e93ff9f4daa797ed6e38ed64bf6a1f010000000000000000831061272b577a184f03e93ff9f4daa797ed6e38ed64bf6a1f010000000000000000838161272157612720613625565b5b0492506040810190505b6d04ee2d6d415b85acef81000000008310612768576d04ee2d6d415b85acef8100000000838161275e5761275d613625565b5b0492506020810190505b662386f26fc10000831061279757662386f26fc10000838161278d5761278c613625565b5b0492506010810190505b6305f5e10083106127c0576305f5e10083816127b6576127b5613625565b5b0492506008810190505b61271083106127e55761271083816127db576127da613625565b5b0492506004810190505b6064831061280857606483816127fe576127fd613625565b5b0492506002810190505b600a8310612817576001810190505b80915050919050565b600073ffffffffffffffffffffffffffffffffffffffff168273ffffffffffffffffffffffffffffffffffffffff16036128925760006040517f64a0ae920000000000000000000000000000000000000000000000000000000081526004016128899190612b60565b60405180910390fd5b60006128a08383600061195e565b9050600073ffffffffffffffffffffffffffffffffffffffff168173ffffffffffffffffffffffffffffffffffffffff16146129145760006040517f73c6ac6e00000000000000000000000000000000000000000000000000000000815260040161290b9190612b60565b60405180910390fd5b505050565b6040518060600160405280600390602082028036833780820191505090505090565b6000604051905090565b600080fd5b600080fd5b60007fffffffff0000000000000000000000000000000000000000000000000000000082169050919050565b6129848161294f565b811461298f57600080fd5b50565b6000813590506129a18161297b565b92915050565b6000602082840312156129bd576129bc612945565b5b60006129cb84828501612992565b91505092915050565b60008115159050919050565b6129e9816129d4565b82525050565b6000602082019050612a0460008301846129e0565b92915050565b600081519050919050565b600082825260208201905092915050565b60005b83811015612a44578082015181840152602081019050612a29565b60008484015250505050565b6000601f19601f8301169050919050565b6000612a6c82612a0a565b612a768185612a15565b9350612a86818560208601612a26565b612a8f81612a50565b840191505092915050565b60006020820190508181036000830152612ab48184612a61565b905092915050565b6000819050919050565b612acf81612abc565b8114612ada57600080fd5b50565b600081359050612aec81612ac6565b92915050565b600060208284031215612b0857612b07612945565b5b6000612b1684828501612add565b91505092915050565b600073ffffffffffffffffffffffffffffffffffffffff82169050919050565b6000612b4a82612b1f565b9050919050565b612b5a81612b3f565b82525050565b6000602082019050612b756000830184612b51565b92915050565b612b8481612b3f565b8114612b8f57600080fd5b50565b600081359050612ba181612b7b565b92915050565b60008060408385031215612bbe57612bbd612945565b5b6000612bcc85828601612b92565b9250506020612bdd85828601612add565b9150509250929050565b600080fd5b600080fd5b600080fd5b60008083601f840112612c0c57612c0b612be7565b5b8235905067ffffffffffffffff811115612c2957612c28612bec565b5b602083019150836020820283011115612c4557612c44612bf1565b5b9250929050565b600080600060408486031215612c6557612c64612945565b5b6000612c7386828701612add565b935050602084013567ffffffffffffffff811115612c9457612c9361294a565b5b612ca086828701612bf6565b92509250509250925092565b600080600060608486031215612cc557612cc4612945565b5b6000612cd386828701612b92565b9350506020612ce486828701612b92565b9250506040612cf586828701612add565b9150509250925092565b600060039050919050565b600081905092915050565b6000819050919050565b612d2881612abc565b82525050565b6000612d3a8383612d1f565b60208301905092915050565b6000602082019050919050565b612d5c81612cff565b612d668184612d0a565b9250612d7182612d15565b8060005b83811015612da2578151612d898782612d2e565b9650612d9483612d46565b925050600181019050612d75565b505050505050565b6000606082019050612dbf6000830184612d53565b92915050565b612dce81612abc565b82525050565b6000602082019050612de96000830184612dc5565b92915050565b600060208284031215612e0557612e04612945565b5b6000612e1384828501612b92565b91505092915050565b6000819050919050565b6000612e41612e3c612e3784612b1f565b612e1c565b612b1f565b9050919050565b6000612e5382612e26565b9050919050565b6000612e6582612e48565b9050919050565b612e7581612e5a565b82525050565b6000602082019050612e906000830184612e6c565b92915050565b612e9f816129d4565b8114612eaa57600080fd5b50565b600081359050612ebc81612e96565b92915050565b60008060408385031215612ed957612ed8612945565b5b6000612ee785828601612b92565b9250506020612ef885828601612ead565b9150509250929050565b7f4e487b7100000000000000000000000000000000000000000000000000000000600052602160045260246000fd5b60038110612f4257612f41612f02565b5b50565b6000819050612f5382612f31565b919050565b6000612f6382612f45565b9050919050565b612f7381612f58565b82525050565b6000602082019050612f8e6000830184612f6a565b92915050565b600080fd5b7f4e487b7100000000000000000000000000000000000000000000000000000000600052604160045260246000fd5b612fd182612a50565b810181811067ffffffffffffffff82111715612ff057612fef612f99565b5b80604052505050565b600061300361293b565b905061300f8282612fc8565b919050565b600067ffffffffffffffff82111561302f5761302e612f99565b5b61303882612a50565b9050602081019050919050565b82818337600083830152505050565b600061306761306284613014565b612ff9565b90508281526020810184848401111561308357613082612f94565b5b61308e848285613045565b509392505050565b600082601f8301126130ab576130aa612be7565b5b81356130bb848260208601613054565b91505092915050565b600080600080608085870312156130de576130dd612945565b5b60006130ec87828801612b92565b94505060206130fd87828801612b92565b935050604061310e87828801612add565b925050606085013567ffffffffffffffff81111561312f5761312e61294a565b5b61313b87828801613096565b91505092959194509250565b6000806040838503121561315e5761315d612945565b5b600061316c85828601612b92565b925050602061317d85828601612b92565b9150509250929050565b7f4e487b7100000000000000000000000000000000000000000000000000000000600052602260045260246000fd5b600060028204905060018216806131ce57607f821691505b6020821081036131e1576131e0613187565b5b50919050565b60006040820190506131fc6000830185612b51565b6132096020830184612b51565b9392505050565b60006060820190506132256000830186612b51565b6132326020830185612dc5565b61323f6040830184612b51565b949350505050565b7f4e487b7100000000000000000000000000000000000000000000000000000000600052603260045260246000fd5b600081905092915050565b50565b6000613291600083613276565b915061329c82613281565b600082019050919050565b60006132b282613284565b9150819050919050565b7f5472616e73666572206661696c65640000000000000000000000000000000000600082015250565b60006132f2600f83612a15565b91506132fd826132bc565b602082019050919050565b60006020820190508181036000830152613321816132e5565b9050919050565b7f4d7573742062652070726f706f736564206f776e657200000000000000000000600082015250565b600061335e601683612a15565b915061336982613328565b602082019050919050565b6000602082019050818103600083015261338d81613351565b9050919050565b60006060820190506133a96000830186612b51565b6133b66020830185612b51565b6133c36040830184612b51565b949350505050565b7f4e487b7100000000000000000000000000000000000000000000000000000000600052601160045260246000fd5b600061340582612abc565b915061341083612abc565b9250828201905080821115613428576134276133cb565b5b92915050565b6000819050919050565b6134418161342e565b82525050565b600061ffff82169050919050565b61345e81613447565b82525050565b600063ffffffff82169050919050565b61347d81613464565b82525050565b600081519050919050565b600082825260208201905092915050565b60006134aa82613483565b6134b4818561348e565b93506134c4818560208601612a26565b6134cd81612a50565b840191505092915050565b600060c0830160008301516134f06000860182613438565b5060208301516135036020860182612d1f565b5060408301516135166040860182613455565b5060608301516135296060860182613474565b50608083015161353c6080860182613474565b5060a083015184820360a0860152613554828261349f565b9150508091505092915050565b6000602082019050818103600083015261357b81846134d8565b905092915050565b60008151905061359281612ac6565b92915050565b6000602082840312156135ae576135ad612945565b5b60006135bc84828501613583565b91505092915050565b600081905092915050565b60006135db82612a0a565b6135e581856135c5565b93506135f5818560208601612a26565b80840191505092915050565b600061360d82856135d0565b915061361982846135d0565b91508190509392505050565b7f4e487b7100000000000000000000000000000000000000000000000000000000600052601260045260246000fd5b600061365f82612abc565b915061366a83612abc565b92508261367a57613679613625565b5b828206905092915050565b600060408201905061369a6000830185612f6a565b6136a76020830184612b51565b9392505050565b7f4f6e6c792063616c6c61626c65206279206f776e657200000000000000000000600082015250565b60006136e4601683612a15565b91506136ef826136ae565b602082019050919050565b60006020820190508181036000830152613713816136d7565b9050919050565b613723816129d4565b82525050565b60208201600082015161373f600085018261371a565b50505050565b600060208201905061375a6000830184613729565b92915050565b600082825260208201905092915050565b600061377c82613483565b6137868185613760565b9350613796818560208601612a26565b61379f81612a50565b840191505092915050565b60006080820190506137bf6000830187612b51565b6137cc6020830186612b51565b6137d96040830185612dc5565b81810360608301526137eb8184613771565b905095945050505050565b6000815190506138058161297b565b92915050565b60006020828403121561382157613820612945565b5b600061382f848285016137f6565b91505092915050565b7f43616e6e6f74207472616e7366657220746f2073656c66000000000000000000600082015250565b600061386e601783612a15565b915061387982613838565b602082019050919050565b6000602082019050818103600083015261389d81613861565b9050919050565b60008190508160005260206000209050919050565b60006020601f8301049050919050565b600082821b905092915050565b6000600883026139067fffffffffffffffffffffffffffffffffffffffffffffffffffffffffffffffff826138c9565b61391086836138c9565b95508019841693508086168417925050509392505050565b600061394361393e61393984612abc565b612e1c565b612abc565b9050919050565b6000819050919050565b61395d83613928565b6139716139698261394a565b8484546138d6565b825550505050565b600090565b613986613979565b613991818484613954565b505050565b5b818110156139b5576139aa60008261397e565b600181019050613997565b5050565b601f8211156139fa576139cb816138a4565b6139d4846138b9565b810160208510156139e3578190505b6139f76139ef856138b9565b830182613996565b50505b505050565b600082821c905092915050565b6000613a1d600019846008026139ff565b1980831691505092915050565b6000613a368383613a0c565b9150826002028217905092915050565b613a4f82612a0a565b67ffffffffffffffff811115613a6857613a67612f99565b5b613a7282546131b6565b613a7d8282856139b9565b600060209050601f831160018114613ab05760008415613a9e578287015190505b613aa88582613a2a565b865550613b10565b601f198416613abe866138a4565b60005b82811015613ae657848901518255600182019150602085019450602081019050613ac1565b86831015613b035784890151613aff601f891682613a0c565b8355505b6001600288020188555050505b505050505050565b6000604082019050613b2d6000830185612b51565b613b3a6020830184612dc5565b939250505056fea26469706673582212207284f1615f1a1093a3863f7edc534c095538ad07668d718c2095cdcfd5d8867264736f6c634300081c0033",
  "linkReferences": {},
  "deployedLinkReferences": {}
}